{
  "_format": "hh-sol-artifact-1",
  "contractName": "Agent",
  "sourceName": "contracts/Agent.sol",
  "abi": [
    {
      "inputs": [
        {
          "internalType": "address",
          "name": "initialOracleAddress",
          "type": "address"
        },
        {
          "internalType": "string",
          "name": "systemPrompt",
          "type": "string"
        }
      ],
      "stateMutability": "nonpayable",
      "type": "constructor"
    },
    {
      "anonymous": false,
      "inputs": [
        {
          "indexed": true,
          "internalType": "address",
          "name": "owner",
          "type": "address"
        },
        {
          "indexed": true,
          "internalType": "uint256",
          "name": "runId",
          "type": "uint256"
        }
      ],
      "name": "AgentRunCreated",
      "type": "event"
    },
    {
      "anonymous": false,
      "inputs": [
        {
          "indexed": true,
          "internalType": "address",
          "name": "newOracleAddress",
          "type": "address"
        }
      ],
      "name": "OracleAddressUpdated",
      "type": "event"
    },
    {
      "inputs": [
        {
          "internalType": "uint256",
          "name": "",
          "type": "uint256"
        }
      ],
      "name": "agentRuns",
      "outputs": [
        {
          "internalType": "address",
          "name": "owner",
          "type": "address"
        },
        {
          "internalType": "uint256",
          "name": "responsesCount",
          "type": "uint256"
        },
        {
          "internalType": "uint8",
          "name": "max_iterations",
          "type": "uint8"
        },
        {
          "internalType": "bool",
          "name": "is_finished",
          "type": "bool"
        },
        {
          "internalType": "string",
          "name": "knowledge_base",
          "type": "string"
        }
      ],
      "stateMutability": "view",
      "type": "function"
    },
    {
      "inputs": [
        {
          "internalType": "uint256",
          "name": "agentId",
          "type": "uint256"
        }
      ],
      "name": "getMessageHistoryContents",
      "outputs": [
        {
          "internalType": "string[]",
          "name": "",
          "type": "string[]"
        }
      ],
      "stateMutability": "view",
      "type": "function"
    },
    {
      "inputs": [
        {
          "internalType": "uint256",
          "name": "agentId",
          "type": "uint256"
        }
      ],
      "name": "getMessageHistoryRoles",
      "outputs": [
        {
          "internalType": "string[]",
          "name": "",
          "type": "string[]"
        }
      ],
      "stateMutability": "view",
      "type": "function"
    },
    {
      "inputs": [
        {
          "internalType": "uint256",
          "name": "runId",
          "type": "uint256"
        }
      ],
      "name": "isRunFinished",
      "outputs": [
        {
          "internalType": "bool",
          "name": "",
          "type": "bool"
        }
      ],
      "stateMutability": "view",
      "type": "function"
    },
    {
      "inputs": [
        {
          "internalType": "uint256",
          "name": "runId",
          "type": "uint256"
        },
        {
          "internalType": "string",
          "name": "response",
          "type": "string"
        },
        {
          "internalType": "string",
          "name": "errorMessage",
          "type": "string"
        }
      ],
      "name": "onOracleFunctionResponse",
      "outputs": [],
      "stateMutability": "nonpayable",
      "type": "function"
    },
    {
      "inputs": [
        {
          "internalType": "uint256",
          "name": "runId",
          "type": "uint256"
        },
        {
          "components": [
            {
              "internalType": "string",
              "name": "id",
              "type": "string"
            },
            {
              "internalType": "string",
              "name": "content",
              "type": "string"
            },
            {
              "internalType": "uint64",
              "name": "created",
              "type": "uint64"
            },
            {
              "internalType": "string",
              "name": "model",
              "type": "string"
            },
            {
              "internalType": "string",
              "name": "systemFingerprint",
              "type": "string"
            },
            {
              "internalType": "string",
              "name": "object",
              "type": "string"
            },
            {
              "internalType": "uint32",
              "name": "completionTokens",
              "type": "uint32"
            },
            {
              "internalType": "uint32",
              "name": "promptTokens",
              "type": "uint32"
            },
            {
              "internalType": "uint32",
              "name": "totalTokens",
              "type": "uint32"
            }
          ],
          "internalType": "struct IOracle.GroqResponse",
          "name": "response",
          "type": "tuple"
        },
        {
          "internalType": "string",
          "name": "errorMessage",
          "type": "string"
        }
      ],
      "name": "onOracleGroqLlmResponse",
      "outputs": [],
      "stateMutability": "nonpayable",
      "type": "function"
    },
    {
      "inputs": [
        {
          "internalType": "uint256",
          "name": "runId",
          "type": "uint256"
        },
        {
          "internalType": "string[]",
          "name": "documents",
          "type": "string[]"
        },
        {
          "internalType": "string",
          "name": "errorMessage",
          "type": "string"
        }
      ],
      "name": "onOracleKnowledgeBaseQueryResponse",
      "outputs": [],
      "stateMutability": "nonpayable",
      "type": "function"
    },
    {
      "inputs": [
        {
          "internalType": "uint256",
          "name": "runId",
          "type": "uint256"
        },
        {
          "components": [
            {
              "internalType": "string",
              "name": "id",
              "type": "string"
            },
            {
              "internalType": "string",
              "name": "content",
              "type": "string"
            },
            {
              "internalType": "string",
              "name": "functionName",
              "type": "string"
            },
            {
              "internalType": "string",
              "name": "functionArguments",
              "type": "string"
            },
            {
              "internalType": "uint64",
              "name": "created",
              "type": "uint64"
            },
            {
              "internalType": "string",
              "name": "model",
              "type": "string"
            },
            {
              "internalType": "string",
              "name": "systemFingerprint",
              "type": "string"
            },
            {
              "internalType": "string",
              "name": "object",
              "type": "string"
            },
            {
              "internalType": "uint32",
              "name": "completionTokens",
              "type": "uint32"
            },
            {
              "internalType": "uint32",
              "name": "promptTokens",
              "type": "uint32"
            },
            {
              "internalType": "uint32",
              "name": "totalTokens",
              "type": "uint32"
            }
          ],
          "internalType": "struct IOracle.OpenAiResponse",
          "name": "response",
          "type": "tuple"
        },
        {
          "internalType": "string",
          "name": "errorMessage",
          "type": "string"
        }
      ],
      "name": "onOracleOpenAiLlmResponse",
      "outputs": [],
      "stateMutability": "nonpayable",
      "type": "function"
    },
    {
      "inputs": [],
      "name": "oracleAddress",
      "outputs": [
        {
          "internalType": "address",
          "name": "",
          "type": "address"
        }
      ],
      "stateMutability": "view",
      "type": "function"
    },
    {
      "inputs": [],
      "name": "prompt",
      "outputs": [
        {
          "internalType": "string",
          "name": "",
          "type": "string"
        }
      ],
      "stateMutability": "view",
      "type": "function"
    },
    {
      "inputs": [
        {
          "internalType": "string",
          "name": "query",
          "type": "string"
        },
        {
          "internalType": "uint8",
          "name": "maxIterations",
          "type": "uint8"
        },
        {
          "components": [
            {
              "internalType": "string",
              "name": "model",
              "type": "string"
            },
            {
              "internalType": "int8",
              "name": "frequencyPenalty",
              "type": "int8"
            },
            {
              "internalType": "string",
              "name": "logitBias",
              "type": "string"
            },
            {
              "internalType": "uint32",
              "name": "maxTokens",
              "type": "uint32"
            },
            {
              "internalType": "int8",
              "name": "presencePenalty",
              "type": "int8"
            },
            {
              "internalType": "string",
              "name": "responseFormat",
              "type": "string"
            },
            {
              "internalType": "uint256",
              "name": "seed",
              "type": "uint256"
            },
            {
              "internalType": "string",
              "name": "stop",
              "type": "string"
            },
            {
              "internalType": "uint256",
              "name": "temperature",
              "type": "uint256"
            },
            {
              "internalType": "uint256",
              "name": "topP",
              "type": "uint256"
            },
            {
              "internalType": "string",
              "name": "tools",
              "type": "string"
            },
            {
              "internalType": "string",
              "name": "toolChoice",
              "type": "string"
            },
            {
              "internalType": "string",
              "name": "user",
              "type": "string"
            }
          ],
          "internalType": "struct IOracle.OpenAiRequest",
          "name": "openAiConfig",
          "type": "tuple"
        },
        {
          "components": [
            {
              "internalType": "string",
              "name": "model",
              "type": "string"
            },
            {
              "internalType": "int8",
              "name": "frequencyPenalty",
              "type": "int8"
            },
            {
              "internalType": "string",
              "name": "logitBias",
              "type": "string"
            },
            {
              "internalType": "uint32",
              "name": "maxTokens",
              "type": "uint32"
            },
            {
              "internalType": "int8",
              "name": "presencePenalty",
              "type": "int8"
            },
            {
              "internalType": "string",
              "name": "responseFormat",
              "type": "string"
            },
            {
              "internalType": "uint256",
              "name": "seed",
              "type": "uint256"
            },
            {
              "internalType": "string",
              "name": "stop",
              "type": "string"
            },
            {
              "internalType": "uint256",
              "name": "temperature",
              "type": "uint256"
            },
            {
              "internalType": "uint256",
              "name": "topP",
              "type": "uint256"
            },
            {
              "internalType": "string",
              "name": "user",
              "type": "string"
            }
          ],
          "internalType": "struct IOracle.GroqRequest",
          "name": "groqConfig",
          "type": "tuple"
        },
        {
          "internalType": "string",
          "name": "knowledge_base",
          "type": "string"
        }
      ],
      "name": "runAgent",
      "outputs": [
        {
          "internalType": "uint256",
          "name": "",
          "type": "uint256"
        }
      ],
      "stateMutability": "nonpayable",
      "type": "function"
    },
    {
      "inputs": [
        {
          "internalType": "address",
          "name": "newOracleAddress",
          "type": "address"
        }
      ],
      "name": "setOracleAddress",
      "outputs": [],
      "stateMutability": "nonpayable",
      "type": "function"
    }
  ],
  "bytecode": "0x6080604052346200024a5762002bd0803803806200001d816200024f565b9283398101906040818303126200024a5780516001600160a01b038116908190036200024a576020828101516001600160401b03939192918482116200024a570193601f918183870112156200024a5785518581116200021f57601f19966200008c828601891687016200024f565b938285528683830101116200024a57859060005b838110620002355750506000918401015260018060a01b031933816003541617600355600454161760045580519384116200021f57600054926001938481811c9116801562000214575b82821014620001fe57838111620001b3575b5080928511600114620001495750839450908392916000946200013d575b50501b916000199060031b1c1916176000555b60405161295a9081620002768239f35b0151925038806200011a565b9294849081166000805284600020946000905b888383106200019857505050106200017e575b505050811b016000556200012d565b015160001960f88460031b161c191690553880806200016f565b8587015188559096019594850194879350908101906200015c565b60008052816000208480880160051c820192848910620001f4575b0160051c019085905b828110620001e7575050620000fc565b60008155018590620001d7565b92508192620001ce565b634e487b7160e01b600052602260045260246000fd5b90607f1690620000ea565b634e487b7160e01b600052604160045260246000fd5b818101830151868201840152879201620000a0565b600080fd5b6040519190601f01601f191682016001600160401b038111838210176200021f5760405256fe6080604052600436101561001257600080fd5b60003560e01c80632843d135146111a25780632eab9c811461116b5780634c69c00f146110c65780634cecd88e14610f20578063529598d3146105d35780637397454d1461044e5780637c65d71114610416578063a89ae4ba146103ed578063c63b029514610364578063cc060137146101e4578063eb17429a1461015a5763ed6e39e5146100a057600080fd5b34610155576020806003193601126101555760043580600052600182818094526100d08260406000200154612892565b926000945b6100ec575b604051806100e88682611534565b0390f35b8060005282825282604060002001805486101561014f578561012661012d61011987989961014895611596565b5060405192838092611456565b03826112c5565b6101378289612500565b526101428188612500565b50611848565b94936100d5565b506100da565b600080fd5b346101555760208060031936011261015557600435806000526001828180945261018a8260406000200154612892565b926000945b6101a157604051806100e88682611534565b8060005282825282604060002001805486101561014f57858461012d6101cc8298996101dd95611596565b506101266040518094819301611456565b949361018f565b3461015557600319606036820112610155576001600160401b03906024358281116101555761012080928236030112610155576040519182018281108482111761034e5760405280600401358381116101555761024790600436918401016112fd565b825260248101358381116101555761026590600436918401016112fd565b602083015261027660448201611353565b604083015260648101358381116101555761029790600436918401016112fd565b60608301526084810135838111610155576102b890600436918401016112fd565b608083015260a48101358381116101555761030d916102e061010492600436918401016112fd565b60a08501526102f160c48201611367565b60c085015261030260e48201611367565b60e085015201611367565b6101008201526044359182116101555761032e61034c9236906004016112fd565b9061034460018060a01b0360045416331461186d565b600435611ac0565b005b634e487b7160e01b600052604160045260246000fd5b34610155576020366003190112610155576004356000526001602052604060002060018060a01b038154166100e8600460ff6002850154946103bc6003820154916103b56040518096819301611456565b03846112c5565b60405195869586526020860152818116604086015260081c161515606084015260a0608084015260a083019061150f565b34610155576000366003190112610155576004546040516001600160a01b039091168152602090f35b34610155576000366003190112610155576100e860405161043a81610126816113b2565b60405191829160208352602083019061150f565b34610155576060366003190112610155576001600160401b03600435602435828111610155576104829036906004016112fd565b916044359081116101555761049b9036906004016112fd565b60045490926001600160a01b03916104b6908316331461186d565b826000526020936001855260406000209160ff600384015460081c1661059c5792600261055493610526600097948997906104ff6040516104f6816112aa565b8b8152826128dc565b15610594575b5061050e6118b0565b90610517611828565b825288820152600183016115c8565b016105318154611848565b90556004541690604051948580948193633c38a5f560e01b835260048301611fdb565b03925af180156105885761056457005b813d8311610581575b61057781836112c5565b8101031261015557005b503d61056d565b6040513d6000823e3d90fd5b90508a610505565b60405162461bcd60e51b815260048101879052600f60248201526e149d5b881a5cc8199a5b9a5cda1959608a1b6044820152606490fd5b346101555760a0366003190112610155576004356001600160401b038111610155576106039036906004016112fd565b6024359060ff82168203610155576001600160401b0360443511610155576101a06044353603600319011261015557604051906101a082018281106001600160401b0382111761034e57604052604435600401356001600160401b03811161015557610677906004369160443501016112fd565b8252602460443501358060000b81036101555760208301526044803501356001600160401b038111610155576106b5906004369160443501016112fd565b60408301526106c8606460443501611367565b606083015260443560840135600081900b9003610155576084604435013560808301526001600160401b0360a4604435013511610155576107143660443560a4810135016004016112fd565b60a083015260c4604435013560c08301526001600160401b0360e46044350135116101555761074e3660443560e4810135016004016112fd565b60e0830152610104604435013561010083015261012460443501356101208301526001600160401b036101446044350135116101555761079a36604435610144810135016004016112fd565b6101408301526001600160401b03610164604435013511610155576107cb36604435610164810135016004016112fd565b6101608301526001600160401b03610184604435013511610155576107fc36604435610184810135016004016112fd565b6101808301526001600160401b03606435116101555761016060643536036003190112610155576040519161083083611273565b6001600160401b0360643560040135116101555761085a36600460643581013560643501016112fd565b835260643560240135600081900b9003610155576024606435013560208401526001600160401b036044606435013511610155576108a3366064356044810135016004016112fd565b60408401526108b56064803501611367565b606084015260643560840135600081900b9003610155576084606435013560808401526001600160401b0360a4606435013511610155576109013660643560a4810135016004016112fd565b60a084015260c4606435013560c08401526001600160401b0360e46064350135116101555761093b3660643560e4810135016004016112fd565b60e0840152610104606435013561010084015261012460643501356101208401526001600160401b036101446064350135116101555761098736606435610144810135016004016112fd565b6101408401526001600160401b0360843511610155576109ac366084356004016112fd565b906002546000526001602052604060002094336bffffffffffffffffffffffff60a01b875416178655600386019060ff825491600060028a0155169061ffff191617905581516001600160401b03811161034e57610a0d6004870154611378565b601f8111610ed9575b50806020601f8211600114610e6c57600091610e61575b508160011b916000199060031b1c19161760048601555b610ab9604051610a538161128f565b604051610a5f8161128f565b600681526573797374656d60d01b60208201528152604051610a8481610126816113b2565b6020820152610a976001880191826115c8565b60405190610aa48261128f565b610aac611828565b82528560208301526115c8565b60025493610ac685611848565b600255825115610ba7575050610b2791602091610b15600060018060a01b0360045416926040519687958694859363a252a95160e01b85528b600486015260806024860152608485019061150f565b8381036003190160448501529061150f565b6003606483015203925af1801561058857610b7c575b506020915b54604051919081906001600160a01b03167f9697c88a6be3b3ed5062f2dcbd719a10914832320686f14e24f7756210a6685e600080a38152f35b602090813d8311610ba0575b610b9281836112c5565b810103126101555782610b3d565b503d610b88565b60009350602092508151604051610bda858281610bcd81830196878151938492016114ec565b81010380845201826112c5565b519020604051858152610bec816112aa565b84815191012014158414610d6a5750610d279060018060a01b036004541690604051948580948193633c38a5f560e01b835289600484015260406024840152610180610d12610cfa610cca610ca8610c76610c5587516101a060448c01526101e48b019061150f565b878f01518b0b60648b015260408801518a82036043190160848c015261150f565b606087015163ffffffff1660a48a015260808701518a0b60c48a015260a08701518982036043190160e48b015261150f565b60c086015161010489015260e0860151888203604319016101248a015261150f565b6101008501516101448801526101208501516101648801526101408501518782036043190161018489015261150f565b610160840151868203604319016101a488015261150f565b910151838203604319016101c485015261150f565b03925af1801561058857610d3f575b50602091610b42565b602090813d8311610d63575b610d5581836112c5565b810103126101555782610d36565b503d610d4b565b610d27915060018060a01b036004541690604051948580948193631e0fca9360e11b835289600484015260406024840152610140610e34610e12610de0610dbf855161016060448a01526101a489019061150f565b858d0151890b606489015260408601518882036043190160848a015261150f565b606085015163ffffffff1660a48801526080850151880b60c488015260a08501518782036043190160e489015261150f565b60c084015161010487015260e08401518682036043190161012488015261150f565b6101008301516101448601526101208301516101648601529101518382036043190161018485015261150f565b905083015187610a2d565b91506004870160005260206000206000925b601f1983168410610ec1576001935082601f19811610610ea8575b5050811b016004860155610a44565b85015160001960f88460031b161c191690558780610e99565b85810151825560209384019360019092019101610e7e565b600487016000526020600020601f830160051c810160208410610f19575b601f830160051c82018110610f0d575050610a16565b60008155600101610ef7565b5080610ef7565b3461015557600319606036820112610155576024356001600160401b0391828211610155576101609082360301126101555760405190610f5f82611273565b806004013583811161015557610f7b90600436918401016112fd565b8252602481013583811161015557610f9990600436918401016112fd565b6020830152604481013583811161015557610fba90600436918401016112fd565b6040830152606481013583811161015557610fdb90600436918401016112fd565b6060830152610fec60848201611353565b608083015260a48101358381116101555761100d90600436918401016112fd565b60a083015260c48101358381116101555761102e90600436918401016112fd565b60c083015260e4810135838111610155576110879161105661014492600436918401016112fd565b60e08501526110686101048201611367565b61010085015261107b6101248201611367565b61012085015201611367565b610140820152604435918211610155576110a861034c9236906004016112fd565b906110be60018060a01b0360045416331461186d565b6004356118ee565b34610155576020366003190112610155576004356001600160a01b03818116918290036101555760035416330361113057600480546001600160a01b031916821790557f107a9fafffb7ac890f780879e423760c9ffea8dcee8045681f40f542aede2cb8600080a2005b60405162461bcd60e51b815260206004820152601360248201527221b0b63632b91034b9903737ba1037bbb732b960691b6044820152606490fd5b34610155576020366003190112610155576004356000526001602052602060ff60036040600020015460081c166040519015158152f35b34610155576060366003190112610155576001600160401b03602480358281116101555736602382011215610155578060040135906111e0826112e6565b926111ee60405194856112c5565b828452602092818486019160051b8401019236841161015557828101915b84831061124d57604435878982116101555761122f61034c9236906004016112fd565b9061124560018060a01b0360045416331461186d565b600435612514565b823588811161015557869161126883928736918701016112fd565b81520192019161120c565b61016081019081106001600160401b0382111761034e57604052565b604081019081106001600160401b0382111761034e57604052565b602081019081106001600160401b0382111761034e57604052565b90601f801991011681019081106001600160401b0382111761034e57604052565b6001600160401b03811161034e5760051b60200190565b81601f82011215610155578035906001600160401b03821161034e5760405192611331601f8401601f1916602001856112c5565b8284526020838301011161015557816000926020809301838601378301015290565b35906001600160401b038216820361015557565b359063ffffffff8216820361015557565b90600182811c921680156113a8575b602083101461139257565b634e487b7160e01b600052602260045260246000fd5b91607f1691611387565b90600091600054906113c382611378565b8082529160019081811690811561143957506001146113e157505050565b91929350600080527f290decd9548b62a8d60345a988386fc84ba6bc95484008f6362f93160ef3e563916000925b84841061142157505060209250010190565b8054602085850181019190915290930192810161140f565b915050602093945060ff929192191683830152151560051b010190565b906000929180549161146783611378565b9182825260019384811690816000146114c95750600114611489575b50505050565b90919394506000526020928360002092846000945b8386106114b5575050505001019038808080611483565b80548587018301529401938590820161149e565b9294505050602093945060ff191683830152151560051b01019038808080611483565b60005b8381106114ff5750506000910152565b81810151838201526020016114ef565b90602091611528815180928185528580860191016114ec565b601f01601f1916010190565b602080820190808352835180925260408301928160408460051b8301019501936000915b8483106115685750505050505090565b9091929394958480611586600193603f198682030187528a5161150f565b9801930193019194939290611558565b80548210156115b25760005260206000209060011b0190600090565b634e487b7160e01b600052603260045260246000fd5b80546801000000000000000081101561034e576115ec906001928382018155611596565b6118125782518051916001600160401b039283811161034e5784906116118354611378565b93601f948581116117c1575b506020908583116001146117585760209492916000918361174d575b5050600019600383901b1c191690831b1781555b01940151805192831161034e576116648554611378565b828111611705575b5060209183116001146116a55792829391839260009461169a575b50501b916000199060031b1c1916179055565b015192503880611687565b90601f198316918560005283826000209360005b878282106116ec575050106116d3575b505050811b019055565b015160001960f88460031b161c191690553880806116c9565b84860151875590950194602094850194879350016116b9565b8560005260206000208380860160051c82019260208710611744575b0160051c019085905b82811061173857505061166c565b6000815501859061172a565b92508192611721565b015190503880611639565b90601f1983169185600052816000209260005b8181106117a957509185939185602098969410611790575b505050811b01815561164d565b015160001960f88460031b161c19169055388080611783565b8284015185558a96909401936020938401930161176b565b909192506000848152602081208680860160051c82019360208710611809575b908a9695949392910160051c01915b8281106117fe57505061161d565b8181558995016117f0565b935081936117e1565b634e487b7160e01b600052600060045260246000fd5b604051906118358261128f565b60048252633ab9b2b960e11b6020830152565b60001981146118575760010190565b634e487b7160e01b600052601160045260246000fd5b1561187457565b60405162461bcd60e51b815260206004820152601460248201527343616c6c6572206973206e6f74206f7261636c6560601b6044820152606490fd5b604051906118bd8261128f565b60606020838281520152565b604051906118d68261128f565b6009825268185cdcda5cdd185b9d60ba1b6020830152565b9190916000908082526020906001825260408084209461191b8251611912816112aa565b868152826128dc565b15611a75575060028501805495600381019687549060ff82161115611a605750848801611957815185519061194f826112aa565b8982526128dc565b15611a28575b50505080860161197c8151835190611974826112aa565b8782526128dc565b15611997575050835461ff0019166101001790935550505050565b8395508496610b1592949395606060018060a01b03600454169351920151966119e2875198899687958694634b04236b60e01b8652600486015260606024860152606485019061150f565b03925af1908115611a1f57506119f757505050565b813d8311611a18575b611a0a81836112c5565b81010312611a155750565b80fd5b503d611a00565b513d85823e3d90fd5b6001611a4c92611a366118b0565b925188840152611a446118c9565b8352016115c8565b611a568154611848565b905538808061195d565b61ff0019166101001790965550505050505050565b91505060039450611aa09250611a896118b0565b91611a926118c9565b8352820152600183016115c8565b60028101611aae8154611848565b905501805461ff001916610100179055565b600092818452600191602093838552604092838720611aec8551611ae3816112aa565b898152836128dc565b15611faf576002810190815493600382019485549060ff82161115611f985750880187611b288251895190611b20826112aa565b8d82526128dc565b15611f6a575b505050549082549160ff8316119081611f53575b5015611f41575050839060018060a01b0360045416868451958693631e0fca9360e11b8552600485015285602485015261016060448501528190601154611b8881611378565b90816101a48801528281169081600014611f225750600114611ec4575b50601254830b6064860152604319858303810160848701526013548493611bcb82611378565b91828252898582169182600014611ea5575050600114611e4a575b505060145463ffffffff811660a4880152871c840b60c4870152858303810160e48701526015548493611c1882611378565b91828252898582169182600014611e2b575050600114611dd0575b505060165461010487015285830381016101248701526017548493611c5782611378565b91828252898582169182600014611db1575050600114611d56575b5050601854610144870152601954610164870152858303016101848601528291601a5491611c9f83611378565b9283835287898383169283600014611d3457505050600114611cd8575b5050509083809203925af1908115611a1f57506119f757505050565b925090601a84527f057c384a7d1c54f3a1b2e5e67b2617b8224fdfd1ea7234eea573a6ff665ff63e9284935b828510611d1957505050018401838038611cbc565b80548486018a01528b988b98508d9650909401938101611d04565b60ff19168582015294151560051b909301909301935090915081905038611cbc565b601786529193508491907fc624b66cc0138b8fabc209247f72d758e1cf3343756d543badbf24212bed8c155b818410611d96575050018601913880611c72565b80548484018b01528c998c99508e9750909301928401611d82565b60ff19168382015292151560051b909101909101935038905080611c72565b601586529193508491907f55f448fdea98c4d29eb340757ef0a66cd03dbb9538908a6a81d96026b71ec4755b818410611e10575050018601913880611c33565b80548484018b01528c998c99508e9750909301928401611dfc565b60ff19168382015292151560051b909101909101935038905080611c33565b601386529193508491907f66de8ffda797e3de9c05e8fc57b3bf0ec28a930d40b0d285d93c06501cf6a0905b818410611e8a575050018601913880611be6565b80548484018b01528c998c99508e9750909301928401611e76565b60ff19168382015292151560051b909101909101935038905080611be6565b6011845290915082907f31ecc21a745e3968a04e9570e4425bc18fa8019c68028196b546d1669c200c685b818310611f0557505084016101c4019038611ba5565b80546101c4848c0101528a978a97508c9550909201918301611eef565b929350506101c49160ff191682870152151560051b8501019038611ba5565b61ff0019166101001790555050505050565b611f64915085519061194f826112aa565b38611b42565b611f8492611f766118b0565b92518b840152611a446118c9565b611f8e8154611848565b8155388087611b2e565b61ff00191661010017909455505050505050505050565b959350905060039550611aa0939150611fc66118b0565b92611fcf6118c9565b845283015283016115c8565b90815260206040818301526101a091826040820152600060059182549461200186611378565b806101e084015260019687811690816000146124e25750600114612485575b5060065460000b6060830152603f1990818385030160808401526000936007549061204a82611378565b91828252888a8216918260001461246757505060011461240d575b505060085463ffffffff811660a0850152861c60000b60c0840152818385030160e08401526000936009549061209a82611378565b91828252888a821691826000146123ef575050600114612395575b5050600a546101008401528284038201610120840152600b546000946120da82611378565b91828252888a8216918260001461237757505060011461231d575b5050600c54610140840152600d546101608401528284038201610180840152600e5460009461212382611378565b91828252888a821691826000146122ff5750506001146122a5575b5050828403820190830152600f5460009361215882611378565b91828252878982169182600014612285575050600114612227575b50506101c0908284030191015260009360105461218f81611378565b808452938183169182156122085750506001146121ae575b5050505090565b9293509060106000527f1b6847dc741a1b0cd08d278845f9d819d87b734759afb55fe2de5cb82a9ae67292846000945b8386106121f457505050500101388080806121a7565b8054858701830152940193859082016121de565b925093929495505060ff1916848401521515901b0101388080806121a7565b8691929450600f6000527f8d1108e10bcb7c27dddfc02ed9d693a074039d026cf4ea4240b40f7d581ac80290886000925b85841061226f57505001019290506101c038612173565b80548385018601528994909301928a9101612258565b60ff191683820152921515871b90910190910193506101c0905038612173565b87929550600e6000527fbb7b4a454dc3493923482f07822329ed19e8244eff582cc204f8554c3620c3fd91896000935b8285106122e957505050010192388061213e565b80548585018701528a95909401938b91016122d5565b60ff191683820152921515881b90910190910194503890508061213e565b87929550600b6000527f0175b7a638427703f0dbe7bb9bbf987a2551717b34e79f33b5b1008d1fa01db991896000935b8285106123615750505001019238806120f5565b80548585018701528a95909401938b910161234d565b60ff191683820152921515881b9091019091019450389050806120f5565b8792955060096000527f6e1540171b6c0c960b71a7020d9f60077f6af931a8bbf590da0223dacf75c7af91896000935b8285106123d95750505001019238806120b5565b80548585018701528a95909401938b91016123c5565b60ff191683820152921515881b9091019091019450389050806120b5565b8792955060076000527fa66cc928b5edb82af9bd49922954155ab7b0942694bea4ce44661d9a8736c68891896000935b828510612451575050500101923880612065565b80548585018701528a95909401938b910161243d565b60ff191683820152921515881b909101909101945038905080612065565b909250836000527f036b6384b5eca791c62761152d0c79bb0604c104a5fb6f4eb0703f3154bb3db085876000925b8484106124cc5750505061020091508201019138612020565b80546102008588010152019101908787916124b3565b929450506102009160ff1916828401521515841b8201019138612020565b80518210156115b25760209160051b010190565b916000928084526001602093818552604093848720838101805491600019938484019380851161287e5715158061284b575b15612807576125628951612559816112aa565b8c8152826128dc565b156127da575050849161257491611596565b50019285519261258f846125888188611456565b03856112c5565b838151612787575b508890825b61270f575b50508251926001600160401b0384116126fb5791889695939185936125c78a9754611378565b601f811161269e575b508690601f8511600114612631576119e2969594938a939092859283612626575b50501b9260031b1c19161790555b60018060a01b0360045416908451958680948193633c38a5f560e01b835260048301611fdb565b0151935038806125f1565b9897969594939192601f19831691858a52878a20928a5b81811061268557509a846119e2999a9b9c1061266d575b50505050811b0190556125ff565b01519060f88460031b161c191690553880808061265f565b828d015185558e9b508d99948701949283019201612648565b91939597988597509490929452888a20601f860160051c8101918a87106126f1575b918a97959391601f8d9b9a9896940160051c01905b8181106126e257506125d0565b998a558b998b985083016126d5565b90915081906126c0565b634e487b7160e01b89526041600452602489fd5b90938151851015612781579061277b8392612775602161272f8986612500565b51928d8d51948261274987945180928580880191016114ec565b830161275d825180938580850191016114ec565b600560f91b91019182015203868101845201826112c5565b95611848565b9161259c565b936125a1565b829194506127d360348951836127a78d83965192818492860191016114ec565b81017305052932b632bb30b73a1031b7b73a32bc3a1d0560611b8d8201520360148101845201826112c5565b9390612597565b94509795509350505060039550611aa093506127f46118b0565b926127fd6118c9565b84528301526115c8565b885162461bcd60e51b8152600481018b9052601c60248201527f4e6f206d65737361676520746f2061646420636f6e7465787420746f000000006044820152606490fd5b5061287961012661286b61285f8787611596565b508c5192838092611456565b612873611828565b906128dc565b612546565b634e487b7160e01b8c52601160045260248cfd5b9061289c826112e6565b6128a960405191826112c5565b82815280926128ba601f19916112e6565b019060005b8281106128cb57505050565b8060606020809385010152016128bf565b90604051916020926128fd848281610bcd81830196878151938492016114ec565b5190209161291d604051918281610bcd81830196878151938492016114ec565b519020149056fea2646970667358221220d2c90b5c163e900f87bf9dad7c729189f60f8c46330e9fc9f0ec85acdbb3bac664736f6c63430008140033",
  "linkReferences": {},
  "deployedLinkReferences": {}
}