{
  "_format": "hh-sol-artifact-1",
  "contractName": "AgentManager",
  "sourceName": "contracts/AgentManager.sol",
  "abi": [
    {
      "inputs": [
        {
          "internalType": "address",
          "name": "initialOracleAddress",
          "type": "address"
        },
        {
          "internalType": "string",
          "name": "initialPrompt",
          "type": "string"
        }
      ],
      "stateMutability": "nonpayable",
      "type": "constructor"
    },
    {
      "inputs": [
        {
          "internalType": "address",
          "name": "sender",
          "type": "address"
        },
        {
          "internalType": "uint256",
          "name": "tokenId",
          "type": "uint256"
        },
        {
          "internalType": "address",
          "name": "owner",
          "type": "address"
        }
      ],
      "name": "ERC721IncorrectOwner",
      "type": "error"
    },
    {
      "inputs": [
        {
          "internalType": "address",
          "name": "operator",
          "type": "address"
        },
        {
          "internalType": "uint256",
          "name": "tokenId",
          "type": "uint256"
        }
      ],
      "name": "ERC721InsufficientApproval",
      "type": "error"
    },
    {
      "inputs": [
        {
          "internalType": "address",
          "name": "approver",
          "type": "address"
        }
      ],
      "name": "ERC721InvalidApprover",
      "type": "error"
    },
    {
      "inputs": [
        {
          "internalType": "address",
          "name": "operator",
          "type": "address"
        }
      ],
      "name": "ERC721InvalidOperator",
      "type": "error"
    },
    {
      "inputs": [
        {
          "internalType": "address",
          "name": "owner",
          "type": "address"
        }
      ],
      "name": "ERC721InvalidOwner",
      "type": "error"
    },
    {
      "inputs": [
        {
          "internalType": "address",
          "name": "receiver",
          "type": "address"
        }
      ],
      "name": "ERC721InvalidReceiver",
      "type": "error"
    },
    {
      "inputs": [
        {
          "internalType": "address",
          "name": "sender",
          "type": "address"
        }
      ],
      "name": "ERC721InvalidSender",
      "type": "error"
    },
    {
      "inputs": [
        {
          "internalType": "uint256",
          "name": "tokenId",
          "type": "uint256"
        }
      ],
      "name": "ERC721NonexistentToken",
      "type": "error"
    },
    {
      "anonymous": false,
      "inputs": [
        {
          "indexed": true,
          "internalType": "uint256",
          "name": "tokenId",
          "type": "uint256"
        },
        {
          "indexed": true,
          "internalType": "address",
          "name": "owner",
          "type": "address"
        }
      ],
      "name": "AgentDeployed",
      "type": "event"
    },
    {
      "anonymous": false,
      "inputs": [
        {
          "indexed": true,
          "internalType": "uint256",
          "name": "tokenId",
          "type": "uint256"
        },
        {
          "indexed": true,
          "internalType": "uint256",
          "name": "runId",
          "type": "uint256"
        }
      ],
      "name": "AgentRunCreated",
      "type": "event"
    },
    {
      "anonymous": false,
      "inputs": [
        {
          "indexed": true,
          "internalType": "address",
          "name": "owner",
          "type": "address"
        },
        {
          "indexed": true,
          "internalType": "address",
          "name": "approved",
          "type": "address"
        },
        {
          "indexed": true,
          "internalType": "uint256",
          "name": "tokenId",
          "type": "uint256"
        }
      ],
      "name": "Approval",
      "type": "event"
    },
    {
      "anonymous": false,
      "inputs": [
        {
          "indexed": true,
          "internalType": "address",
          "name": "owner",
          "type": "address"
        },
        {
          "indexed": true,
          "internalType": "address",
          "name": "operator",
          "type": "address"
        },
        {
          "indexed": false,
          "internalType": "bool",
          "name": "approved",
          "type": "bool"
        }
      ],
      "name": "ApprovalForAll",
      "type": "event"
    },
    {
      "anonymous": false,
      "inputs": [
        {
          "indexed": false,
          "internalType": "uint256",
          "name": "_fromTokenId",
          "type": "uint256"
        },
        {
          "indexed": false,
          "internalType": "uint256",
          "name": "_toTokenId",
          "type": "uint256"
        }
      ],
      "name": "BatchMetadataUpdate",
      "type": "event"
    },
    {
      "anonymous": false,
      "inputs": [
        {
          "indexed": false,
          "internalType": "uint256",
          "name": "_tokenId",
          "type": "uint256"
        }
      ],
      "name": "MetadataUpdate",
      "type": "event"
    },
    {
      "anonymous": false,
      "inputs": [
        {
          "indexed": true,
          "internalType": "address",
          "name": "newOracleAddress",
          "type": "address"
        }
      ],
      "name": "OracleAddressUpdated",
      "type": "event"
    },
    {
      "anonymous": false,
      "inputs": [
        {
          "indexed": true,
          "internalType": "address",
          "name": "from",
          "type": "address"
        },
        {
          "indexed": true,
          "internalType": "address",
          "name": "to",
          "type": "address"
        },
        {
          "indexed": true,
          "internalType": "uint256",
          "name": "tokenId",
          "type": "uint256"
        }
      ],
      "name": "Transfer",
      "type": "event"
    },
    {
      "inputs": [
        {
          "internalType": "uint256",
          "name": "",
          "type": "uint256"
        }
      ],
      "name": "agentConfigs",
      "outputs": [
        {
          "components": [
            {
              "internalType": "string",
              "name": "model",
              "type": "string"
            },
            {
              "internalType": "int8",
              "name": "frequencyPenalty",
              "type": "int8"
            },
            {
              "internalType": "string",
              "name": "logitBias",
              "type": "string"
            },
            {
              "internalType": "uint32",
              "name": "maxTokens",
              "type": "uint32"
            },
            {
              "internalType": "int8",
              "name": "presencePenalty",
              "type": "int8"
            },
            {
              "internalType": "string",
              "name": "responseFormat",
              "type": "string"
            },
            {
              "internalType": "uint256",
              "name": "seed",
              "type": "uint256"
            },
            {
              "internalType": "string",
              "name": "stop",
              "type": "string"
            },
            {
              "internalType": "uint256",
              "name": "temperature",
              "type": "uint256"
            },
            {
              "internalType": "uint256",
              "name": "topP",
              "type": "uint256"
            },
            {
              "internalType": "string",
              "name": "tools",
              "type": "string"
            },
            {
              "internalType": "string",
              "name": "toolChoice",
              "type": "string"
            },
            {
              "internalType": "string",
              "name": "user",
              "type": "string"
            }
          ],
          "internalType": "struct IOracle.OpenAiRequest",
          "name": "openAiConfig",
          "type": "tuple"
        },
        {
          "components": [
            {
              "internalType": "string",
              "name": "model",
              "type": "string"
            },
            {
              "internalType": "int8",
              "name": "frequencyPenalty",
              "type": "int8"
            },
            {
              "internalType": "string",
              "name": "logitBias",
              "type": "string"
            },
            {
              "internalType": "uint32",
              "name": "maxTokens",
              "type": "uint32"
            },
            {
              "internalType": "int8",
              "name": "presencePenalty",
              "type": "int8"
            },
            {
              "internalType": "string",
              "name": "responseFormat",
              "type": "string"
            },
            {
              "internalType": "uint256",
              "name": "seed",
              "type": "uint256"
            },
            {
              "internalType": "string",
              "name": "stop",
              "type": "string"
            },
            {
              "internalType": "uint256",
              "name": "temperature",
              "type": "uint256"
            },
            {
              "internalType": "uint256",
              "name": "topP",
              "type": "uint256"
            },
            {
              "internalType": "string",
              "name": "user",
              "type": "string"
            }
          ],
          "internalType": "struct IOracle.GroqRequest",
          "name": "groqConfig",
          "type": "tuple"
        },
        {
          "internalType": "bool",
          "name": "useOpenAi",
          "type": "bool"
        },
        {
          "internalType": "string",
          "name": "knowledgeBase",
          "type": "string"
        },
        {
          "internalType": "uint8",
          "name": "maxIterations",
          "type": "uint8"
        },
        {
          "internalType": "uint32",
          "name": "numDocuments",
          "type": "uint32"
        }
      ],
      "stateMutability": "view",
      "type": "function"
    },
    {
      "inputs": [
        {
          "internalType": "uint256",
          "name": "",
          "type": "uint256"
        }
      ],
      "name": "agentRuns",
      "outputs": [
        {
          "internalType": "address",
          "name": "owner",
          "type": "address"
        },
        {
          "internalType": "uint256",
          "name": "responsesCount",
          "type": "uint256"
        },
        {
          "internalType": "uint8",
          "name": "max_iterations",
          "type": "uint8"
        },
        {
          "internalType": "bool",
          "name": "is_finished",
          "type": "bool"
        },
        {
          "internalType": "string",
          "name": "knowledge_base",
          "type": "string"
        }
      ],
      "stateMutability": "view",
      "type": "function"
    },
    {
      "inputs": [
        {
          "internalType": "address",
          "name": "to",
          "type": "address"
        },
        {
          "internalType": "uint256",
          "name": "tokenId",
          "type": "uint256"
        }
      ],
      "name": "approve",
      "outputs": [],
      "stateMutability": "nonpayable",
      "type": "function"
    },
    {
      "inputs": [
        {
          "internalType": "address",
          "name": "owner",
          "type": "address"
        }
      ],
      "name": "balanceOf",
      "outputs": [
        {
          "internalType": "uint256",
          "name": "",
          "type": "uint256"
        }
      ],
      "stateMutability": "view",
      "type": "function"
    },
    {
      "inputs": [
        {
          "components": [
            {
              "internalType": "string",
              "name": "model",
              "type": "string"
            },
            {
              "internalType": "int8",
              "name": "frequencyPenalty",
              "type": "int8"
            },
            {
              "internalType": "string",
              "name": "logitBias",
              "type": "string"
            },
            {
              "internalType": "uint32",
              "name": "maxTokens",
              "type": "uint32"
            },
            {
              "internalType": "int8",
              "name": "presencePenalty",
              "type": "int8"
            },
            {
              "internalType": "string",
              "name": "responseFormat",
              "type": "string"
            },
            {
              "internalType": "uint256",
              "name": "seed",
              "type": "uint256"
            },
            {
              "internalType": "string",
              "name": "stop",
              "type": "string"
            },
            {
              "internalType": "uint256",
              "name": "temperature",
              "type": "uint256"
            },
            {
              "internalType": "uint256",
              "name": "topP",
              "type": "uint256"
            },
            {
              "internalType": "string",
              "name": "tools",
              "type": "string"
            },
            {
              "internalType": "string",
              "name": "toolChoice",
              "type": "string"
            },
            {
              "internalType": "string",
              "name": "user",
              "type": "string"
            }
          ],
          "internalType": "struct IOracle.OpenAiRequest",
          "name": "openAiConfig",
          "type": "tuple"
        },
        {
          "components": [
            {
              "internalType": "string",
              "name": "model",
              "type": "string"
            },
            {
              "internalType": "int8",
              "name": "frequencyPenalty",
              "type": "int8"
            },
            {
              "internalType": "string",
              "name": "logitBias",
              "type": "string"
            },
            {
              "internalType": "uint32",
              "name": "maxTokens",
              "type": "uint32"
            },
            {
              "internalType": "int8",
              "name": "presencePenalty",
              "type": "int8"
            },
            {
              "internalType": "string",
              "name": "responseFormat",
              "type": "string"
            },
            {
              "internalType": "uint256",
              "name": "seed",
              "type": "uint256"
            },
            {
              "internalType": "string",
              "name": "stop",
              "type": "string"
            },
            {
              "internalType": "uint256",
              "name": "temperature",
              "type": "uint256"
            },
            {
              "internalType": "uint256",
              "name": "topP",
              "type": "uint256"
            },
            {
              "internalType": "string",
              "name": "user",
              "type": "string"
            }
          ],
          "internalType": "struct IOracle.GroqRequest",
          "name": "groqConfig",
          "type": "tuple"
        },
        {
          "internalType": "bool",
          "name": "useOpenAi",
          "type": "bool"
        },
        {
          "internalType": "string",
          "name": "tokenURI",
          "type": "string"
        },
        {
          "internalType": "string",
          "name": "knowledgeBase",
          "type": "string"
        },
        {
          "internalType": "string",
          "name": "tools",
          "type": "string"
        },
        {
          "internalType": "uint8",
          "name": "maxIterations",
          "type": "uint8"
        },
        {
          "internalType": "uint32",
          "name": "initialNumDocuments",
          "type": "uint32"
        }
      ],
      "name": "deployAgent",
      "outputs": [
        {
          "internalType": "uint256",
          "name": "",
          "type": "uint256"
        }
      ],
      "stateMutability": "nonpayable",
      "type": "function"
    },
    {
      "inputs": [
        {
          "internalType": "uint256",
          "name": "tokenId",
          "type": "uint256"
        }
      ],
      "name": "getApproved",
      "outputs": [
        {
          "internalType": "address",
          "name": "",
          "type": "address"
        }
      ],
      "stateMutability": "view",
      "type": "function"
    },
    {
      "inputs": [
        {
          "internalType": "uint256",
          "name": "agentId",
          "type": "uint256"
        }
      ],
      "name": "getMessageHistoryContents",
      "outputs": [
        {
          "internalType": "string[]",
          "name": "",
          "type": "string[]"
        }
      ],
      "stateMutability": "view",
      "type": "function"
    },
    {
      "inputs": [
        {
          "internalType": "uint256",
          "name": "agentId",
          "type": "uint256"
        }
      ],
      "name": "getMessageHistoryRoles",
      "outputs": [
        {
          "internalType": "string[]",
          "name": "",
          "type": "string[]"
        }
      ],
      "stateMutability": "view",
      "type": "function"
    },
    {
      "inputs": [
        {
          "internalType": "address",
          "name": "owner",
          "type": "address"
        },
        {
          "internalType": "address",
          "name": "operator",
          "type": "address"
        }
      ],
      "name": "isApprovedForAll",
      "outputs": [
        {
          "internalType": "bool",
          "name": "",
          "type": "bool"
        }
      ],
      "stateMutability": "view",
      "type": "function"
    },
    {
      "inputs": [
        {
          "internalType": "uint256",
          "name": "runId",
          "type": "uint256"
        }
      ],
      "name": "isRunFinished",
      "outputs": [
        {
          "internalType": "bool",
          "name": "",
          "type": "bool"
        }
      ],
      "stateMutability": "view",
      "type": "function"
    },
    {
      "inputs": [],
      "name": "name",
      "outputs": [
        {
          "internalType": "string",
          "name": "",
          "type": "string"
        }
      ],
      "stateMutability": "view",
      "type": "function"
    },
    {
      "inputs": [
        {
          "internalType": "uint256",
          "name": "runId",
          "type": "uint256"
        },
        {
          "internalType": "string",
          "name": "response",
          "type": "string"
        },
        {
          "internalType": "string",
          "name": "errorMessage",
          "type": "string"
        }
      ],
      "name": "onOracleFunctionResponse",
      "outputs": [],
      "stateMutability": "nonpayable",
      "type": "function"
    },
    {
      "inputs": [
        {
          "internalType": "uint256",
          "name": "runId",
          "type": "uint256"
        },
        {
          "components": [
            {
              "internalType": "string",
              "name": "id",
              "type": "string"
            },
            {
              "internalType": "string",
              "name": "content",
              "type": "string"
            },
            {
              "internalType": "uint64",
              "name": "created",
              "type": "uint64"
            },
            {
              "internalType": "string",
              "name": "model",
              "type": "string"
            },
            {
              "internalType": "string",
              "name": "systemFingerprint",
              "type": "string"
            },
            {
              "internalType": "string",
              "name": "object",
              "type": "string"
            },
            {
              "internalType": "uint32",
              "name": "completionTokens",
              "type": "uint32"
            },
            {
              "internalType": "uint32",
              "name": "promptTokens",
              "type": "uint32"
            },
            {
              "internalType": "uint32",
              "name": "totalTokens",
              "type": "uint32"
            }
          ],
          "internalType": "struct IOracle.GroqResponse",
          "name": "response",
          "type": "tuple"
        },
        {
          "internalType": "string",
          "name": "errorMessage",
          "type": "string"
        }
      ],
      "name": "onOracleGroqLlmResponse",
      "outputs": [],
      "stateMutability": "nonpayable",
      "type": "function"
    },
    {
      "inputs": [
        {
          "internalType": "uint256",
          "name": "runId",
          "type": "uint256"
        },
        {
          "internalType": "string[]",
          "name": "documents",
          "type": "string[]"
        },
        {
          "internalType": "string",
          "name": "errorMessage",
          "type": "string"
        }
      ],
      "name": "onOracleKnowledgeBaseQueryResponse",
      "outputs": [],
      "stateMutability": "nonpayable",
      "type": "function"
    },
    {
      "inputs": [
        {
          "internalType": "uint256",
          "name": "runId",
          "type": "uint256"
        },
        {
          "components": [
            {
              "internalType": "string",
              "name": "id",
              "type": "string"
            },
            {
              "internalType": "string",
              "name": "content",
              "type": "string"
            },
            {
              "internalType": "string",
              "name": "functionName",
              "type": "string"
            },
            {
              "internalType": "string",
              "name": "functionArguments",
              "type": "string"
            },
            {
              "internalType": "uint64",
              "name": "created",
              "type": "uint64"
            },
            {
              "internalType": "string",
              "name": "model",
              "type": "string"
            },
            {
              "internalType": "string",
              "name": "systemFingerprint",
              "type": "string"
            },
            {
              "internalType": "string",
              "name": "object",
              "type": "string"
            },
            {
              "internalType": "uint32",
              "name": "completionTokens",
              "type": "uint32"
            },
            {
              "internalType": "uint32",
              "name": "promptTokens",
              "type": "uint32"
            },
            {
              "internalType": "uint32",
              "name": "totalTokens",
              "type": "uint32"
            }
          ],
          "internalType": "struct IOracle.OpenAiResponse",
          "name": "response",
          "type": "tuple"
        },
        {
          "internalType": "string",
          "name": "errorMessage",
          "type": "string"
        }
      ],
      "name": "onOracleOpenAiLlmResponse",
      "outputs": [],
      "stateMutability": "nonpayable",
      "type": "function"
    },
    {
      "inputs": [],
      "name": "oracleAddress",
      "outputs": [
        {
          "internalType": "address",
          "name": "",
          "type": "address"
        }
      ],
      "stateMutability": "view",
      "type": "function"
    },
    {
      "inputs": [
        {
          "internalType": "uint256",
          "name": "tokenId",
          "type": "uint256"
        }
      ],
      "name": "ownerOf",
      "outputs": [
        {
          "internalType": "address",
          "name": "",
          "type": "address"
        }
      ],
      "stateMutability": "view",
      "type": "function"
    },
    {
      "inputs": [],
      "name": "prompt",
      "outputs": [
        {
          "internalType": "string",
          "name": "",
          "type": "string"
        }
      ],
      "stateMutability": "view",
      "type": "function"
    },
    {
      "inputs": [
        {
          "internalType": "uint256",
          "name": "tokenId",
          "type": "uint256"
        },
        {
          "internalType": "string",
          "name": "query",
          "type": "string"
        }
      ],
      "name": "runAgent",
      "outputs": [],
      "stateMutability": "nonpayable",
      "type": "function"
    },
    {
      "inputs": [
        {
          "internalType": "address",
          "name": "from",
          "type": "address"
        },
        {
          "internalType": "address",
          "name": "to",
          "type": "address"
        },
        {
          "internalType": "uint256",
          "name": "tokenId",
          "type": "uint256"
        }
      ],
      "name": "safeTransferFrom",
      "outputs": [],
      "stateMutability": "nonpayable",
      "type": "function"
    },
    {
      "inputs": [
        {
          "internalType": "address",
          "name": "from",
          "type": "address"
        },
        {
          "internalType": "address",
          "name": "to",
          "type": "address"
        },
        {
          "internalType": "uint256",
          "name": "tokenId",
          "type": "uint256"
        },
        {
          "internalType": "bytes",
          "name": "data",
          "type": "bytes"
        }
      ],
      "name": "safeTransferFrom",
      "outputs": [],
      "stateMutability": "nonpayable",
      "type": "function"
    },
    {
      "inputs": [
        {
          "internalType": "address",
          "name": "operator",
          "type": "address"
        },
        {
          "internalType": "bool",
          "name": "approved",
          "type": "bool"
        }
      ],
      "name": "setApprovalForAll",
      "outputs": [],
      "stateMutability": "nonpayable",
      "type": "function"
    },
    {
      "inputs": [
        {
          "internalType": "address",
          "name": "newOracleAddress",
          "type": "address"
        }
      ],
      "name": "setOracleAddress",
      "outputs": [],
      "stateMutability": "nonpayable",
      "type": "function"
    },
    {
      "inputs": [
        {
          "internalType": "string",
          "name": "newPrompt",
          "type": "string"
        }
      ],
      "name": "setPrompt",
      "outputs": [],
      "stateMutability": "nonpayable",
      "type": "function"
    },
    {
      "inputs": [
        {
          "internalType": "bytes4",
          "name": "interfaceId",
          "type": "bytes4"
        }
      ],
      "name": "supportsInterface",
      "outputs": [
        {
          "internalType": "bool",
          "name": "",
          "type": "bool"
        }
      ],
      "stateMutability": "view",
      "type": "function"
    },
    {
      "inputs": [],
      "name": "symbol",
      "outputs": [
        {
          "internalType": "string",
          "name": "",
          "type": "string"
        }
      ],
      "stateMutability": "view",
      "type": "function"
    },
    {
      "inputs": [
        {
          "internalType": "uint256",
          "name": "tokenId",
          "type": "uint256"
        }
      ],
      "name": "tokenURI",
      "outputs": [
        {
          "internalType": "string",
          "name": "",
          "type": "string"
        }
      ],
      "stateMutability": "view",
      "type": "function"
    },
    {
      "inputs": [
        {
          "internalType": "address",
          "name": "from",
          "type": "address"
        },
        {
          "internalType": "address",
          "name": "to",
          "type": "address"
        },
        {
          "internalType": "uint256",
          "name": "tokenId",
          "type": "uint256"
        }
      ],
      "name": "transferFrom",
      "outputs": [],
      "stateMutability": "nonpayable",
      "type": "function"
    },
    {
      "inputs": [
        {
          "internalType": "uint256",
          "name": "tokenId",
          "type": "uint256"
        },
        {
          "internalType": "uint32",
          "name": "count",
          "type": "uint32"
        }
      ],
      "name": "updateKnowledgeBaseDocumentCount",
      "outputs": [],
      "stateMutability": "nonpayable",
      "type": "function"
    }
  ],
  "bytecode": "0x6080604052346200051e5762004e7e803803806200001d8162000559565b9283398101906040818303126200051e5780516001600160a01b038116908190036200051e576020828101516001600160401b03938482116200051e570193601f918183870112156200051e5785518581116200052357601f1996620000898286018916840162000559565b938285528383830101116200051e57829060005b8381106200050957505060009184010152620000b862000539565b9360088552671059d95b9d13919560c21b82860152620000d762000539565b90600491828152631051d39560e21b8482015286518881116200040d57600054976001988981811c91168015620004fe575b87821014620004e95790818984931162000493575b5086908983116001146200042e5760009262000422575b5050600019600383901b1c191690881b176000555b8051908882116200040d5787548881811c9116801562000402575b86821014620003ed5790818884931162000397575b508590888311600114620003335760009262000327575b5050600019600383901b1c191690871b1786555b60018060a01b031933816008541617600855600954161760095582519586116200031257600a54908582811c9216801562000307575b83831014620002f25750838111620002a6575b50809285116001146200023b5750839450908392916000946200022f575b50501b916000199060031b1c191617600a555b6040516148fe9081620005808239f35b0151925038806200020c565b929484908116600a60005284600020946000905b888383106200028b575050501062000271575b505050811b01600a556200021f565b015160001960f88460031b161c1916905538808062000262565b8587015188559096019594850194879350908101906200024f565b600a600052816000208480880160051c820192848910620002e8575b0160051c019085905b828110620002db575050620001ee565b60008155018590620002cb565b92508192620002c2565b602290634e487b7160e01b6000525260246000fd5b91607f1691620001db565b604190634e487b7160e01b6000525260246000fd5b01519050388062000191565b908b8a94169184600052876000209260005b8982821062000380575050841162000366575b505050811b018655620001a5565b015160001960f88460031b161c1916905538808062000358565b8385015186558d9790950194938401930162000345565b90915088600052856000208880850160051c820192888610620003e3575b918b91869594930160051c01915b828110620003d35750506200017a565b600081558594508b9101620003c3565b92508192620003b5565b602285634e487b7160e01b6000525260246000fd5b90607f169062000165565b604184634e487b7160e01b6000525260246000fd5b01519050388062000135565b908c8b94169160008052886000209260005b8a8282106200047c575050841162000462575b505050811b016000556200014a565b015160001960f88460031b161c1916905538808062000453565b8385015186558e9790950194938401930162000440565b90915060008052866000208980850160051c820192898610620004df575b918c91869594930160051c01915b828110620004cf5750506200011e565b600081558594508c9101620004bf565b92508192620004b1565b602286634e487b7160e01b6000525260246000fd5b90607f169062000109565b8181018301518682018401528492016200009d565b600080fd5b634e487b7160e01b600052604160045260246000fd5b60408051919082016001600160401b038111838210176200052357604052565b6040519190601f01601f191682016001600160401b03811183821017620005235760405256fe608080604052600436101561001357600080fd5b60003560e01c90816301ffc9a71461322c5750806306fdde0314613189578063081812fc1461314b578063095ea7b31461306457806323b872dd1461304d5780632843d13514612f7c5780632eab9c8114612f4557806342842e0e14612f1d5780634c69c00f14612e645780634cecd88e14612cbe578063584d5e49146128a35780636352211e1461287357806370a082311461281a5780637397454d146126a45780637c65d7111461268057806395d89b41146125a1578063a22cb465146124f3578063a89ae4ba146124ca578063ac19ee7f146121e6578063b4ac024f14612060578063b88d4fde14612001578063b8ba9b8d14611f91578063c63b029514611f08578063c87b56dd14611ea5578063cc06013714611d3b578063dac0494714610300578063e985e9c5146102aa578063eb17429a1461021c5763ed6e39e51461015e57600080fd5b34610217576020806003193601126102175760043580600052600c918281526001928391610192836040600020015461487e565b936000955b6101ae575b604051806101aa8782613609565b0390f35b8060005282825283604060002001805487101561021157866101e86101ef6101db88999a61020a95613e1b565b5060405192838092613573565b03826133c8565b6101f9828a6144d2565b5261020481896144d2565b50613a14565b9594610197565b5061019c565b600080fd5b34610217576020806003193601126102175760043580600052600c918281526001928391610250836040600020015461487e565b936000955b61026757604051806101aa8782613609565b806000528282528360406000200180548710156102115786856101ef61029282999a6102a395613e1b565b506101e86040518094819301613573565b9594610255565b34610217576040366003190112610217576102c36132f9565b6102cb61330f565b9060018060a01b03809116600052600560205260406000209116600052602052602060ff604060002054166040519015158152f35b3461021757610100366003190112610217576001600160401b0360043511610217576101a0600435360360031901126102175760405161033f81613376565b600435600401356001600160401b03811161021757610365906004369181350101613452565b8152602460043501358060000b8103610217576020820152604460043501356001600160401b038111610217576103a3906004369181350101613452565b60408201526103b6606460043501613484565b606082015260043560840135600081900b9003610217576084600435013560808201526001600160401b0360a460043501351161021757610401366004803560a48101350101613452565b60a082015260c4600435013560c08201526001600160401b0360e46004350135116102175761043a366004803560e48101350101613452565b60e0820152610104600435013561010082015261012460043501356101208201526001600160401b036101446004350135116102175761048536600480356101448101350101613452565b6101408201526001600160401b03610164600435013511610217576104b536600480356101648101350101613452565b6101608201526001600160401b03610184600435013511610217576104e536600480356101848101350101613452565b6101808201526001600160401b0360243511610217576101606024353603600319011261021757604051906105198261335a565b6001600160401b036024356004013511610217576105433660046024358101356024350101613452565b8252602480350135600081900b90036102175760248035013560208301526001600160401b0360446024350135116102175761058a36602435604481013501600401613452565b604083015261059d606460243501613484565b606083015260243560840135600081900b9003610217576084602435013560808301526001600160401b0360a4602435013511610217576105e93660243560a481013501600401613452565b60a083015260c4602435013560c08301526001600160401b0360e4602435013511610217576106233660243560e481013501600401613452565b60e0830152610104602435013561010083015261012460243501356101208301526001600160401b036101446024350135116102175761066f3660243561014481013501600401613452565b610140830152604435151560443503610217576001600160401b0360643511610217576106a136606435600401613452565b906001600160401b0360843511610217576106c136608435600401613452565b926001600160401b0360a43511610217576106e13660a435600401613452565b9160ff60c4351660c435036102175763ffffffff60e4351660e43503610217576007549361070e85613a14565b6007553315611d22576000858152600260205260409020546001600160a01b031680611ceb575b3360005260036020526040600020600181540190558560005260026020526040600020336001600160601b0360a01b8254161790558533827fddf252ad1be2c89b69c2b068fc378daa952ba7f163c4a11628f55a4df523b3ef600080a4611cd2578460005260066020526040600020908051906001600160401b0382116110315781906107cc826107c68654613495565b866139c0565b602090601f8311600114611c6657600092611c5b575b50508160011b916000199060031b1c19161790555b7ff8e1a15aba9398e019f0b49df1a4fde98ee17ae345cb5f6b5e2c27f5033e8ce76020604051868152a183600052600b6020526040600020926044356000146118d4576108478251511515613a39565b6108b8602083015160000b61086a601319918281121590816118c8575b50613a85565b610882604085015151158015806118c0575b50613ad1565b61089f63ffffffff606086015116158015806118b8575b50613b11565b608084015160000b9081121590816118ac575b50613b51565b6108d360a083015180518015918215611854575b5050613b9d565b6108ea60c08301511580158061184c575b50613be9565b61090260e08301515115801580611844575b50613c24565b61091460146101008401511115613c68565b61092660646101208401511115613caa565b610160820151805180159182156117f8575b505080156117a9575b1561176e57610140820151511580611708575b8015611685575b15611630576101408201819052511561160e5760405161097a81613392565b60048152636175746f60e01b60208201525b6101608201525b80518051906001600160401b0382116110315781906109bc826109b68854613495565b886139c0565b602090601f83116001146115a257600092611597575b50508160011b916000199060031b1c19161783555b602081015160ff196001850154169060ff1617600184015560408101518051906001600160401b038211611031578190610a3182610a286002890154613495565b600289016139c0565b602090601f83116001146115255760009261151a575b50508160011b916000199060031b1c19161760028401555b63ffffffff60608201511663ffffffff19600385015416176003840155610aa7608082015160000b600385019081549060201b64ff00000000169064ff000000001916179055565b60a08101518051906001600160401b038211611031578190610ad982610ad06004890154613495565b600489016139c0565b602090601f83116001146114a85760009261149d575b50508160011b916000199060031b1c19161760048401555b60c0810151600584015560e08101518051906001600160401b038211611031578190610b4382610b3a6006890154613495565b600689016139c0565b602090601f831160011461142b57600092611420575b50508160011b916000199060031b1c19161760068401555b610100810151600784015561012081015160088401556101408101518051906001600160401b038211611031578190610bba82610bb16009890154613495565b600989016139c0565b602090601f83116001146113ae576000926113a3575b50508160011b916000199060031b1c19161760098401555b6101608101518051906001600160401b03821161103157610c1982610c10600a880154613495565b600a88016139c0565b602090601f831160011461132f5761018093929160009183611324575b50508160011b916000199060031b1c191617600a8501555b01518051906001600160401b038211611031578190610c7d82610c74600b880154613495565b600b88016139c0565b602090601f83116001146112b2576000926112a7575b50508160011b916000199060031b1c191617600b8301555b80518051906001600160401b038211611031578190610cda82610cd1600c880154613495565b600c88016139c0565b602090601f83116001146112355760009261122a575b50508160011b916000199060031b1c191617600c8301555b600d8201602082015160ff198254169060ff1617905560408101518051906001600160401b038211611031578190610d5082610d47600e880154613495565b600e88016139c0565b602090601f83116001146111b8576000926111ad575b50508160011b916000199060031b1c191617600e8301555b610dbf600f830163ffffffff60608401511663ffffffff19825416178155608083015160000b81549060201b64ff00000000169064ff000000001916179055565b60a08101518051906001600160401b038211611031578190610df182610de86010880154613495565b601088016139c0565b602090601f831160011461113b57600092611130575b50508160011b916000199060031b1c19161760108301555b60c0810151601183015560e081015180516001600160401b038111611031576012840191610e5782610e518554613495565b856139c0565b602090601f83116001146110c35761014094939291600091836110b8575b50508160011b916000199060031b1c19161790555b61010081015160138401556101208101516014840155015180516001600160401b03811161103157806015840192610ec6826107c68654613495565b602090601f831160011461105257600092611047575b50508160011b916000199060031b1c19161790555b610f0c604435601683019060ff801983541691151516179055565b6017810183516001600160401b03811161103157602094610f3182610e518554613495565b8590601f8311600114610fc457918060189492610f8a9694600092610fb9575b50508160011b916000199060031b1c19161790555b01805464ffffffffff191660c43560ff161760e43560081b64ffffffff0016179055565b6040519033817f1a1591a1a262f8d4670dad61d6f4453d34bf767367deafb4ee4053cae802f3cb600080a38152f35b015190508880610f51565b90601f1983169184600052876000209260005b81811061101a5750926001928592610f8a98966018989610611001575b505050811b019055610f66565b015160001960f88460031b161c19169055888080610ff4565b929389600181928786015181550195019301610fd7565b634e487b7160e01b600052604160045260246000fd5b015190508680610edc565b6000858152602081209350601f198516905b8181106110a05750908460019594939210611087575b505050811b019055610ef1565b015160001960f88460031b161c1916905586808061107a565b92936020600181928786015181550195019301611064565b015190508880610e75565b90601f198316918460005260206000209260005b818110611118575091600193918561014098979694106110ff575b505050811b019055610e8a565b015160001960f88460031b161c191690558880806110f2565b929360206001819287860151815501950193016110d7565b015190508680610e07565b9250601085016000526020600020906000935b601f1984168510611192576001945083601f19811610611179575b505050811b016010830155610e1f565b015160001960f88460031b161c19169055868080611169565b8181015183556020948501946001909301929091019061114e565b015190508680610d66565b9250600e85016000526020600020906000935b601f198416851061120f576001945083601f198116106111f6575b505050811b01600e830155610d7e565b015160001960f88460031b161c191690558680806111e6565b818101518355602094850194600190930192909101906111cb565b015190508680610cf0565b9250600c85016000526020600020906000935b601f198416851061128c576001945083601f19811610611273575b505050811b01600c830155610d08565b015160001960f88460031b161c19169055868080611263565b81810151835560209485019460019093019290910190611248565b015190508680610c93565b9250600b85016000526020600020906000935b601f1984168510611309576001945083601f198116106112f0575b505050811b01600b830155610cab565b015160001960f88460031b161c191690558680806112e0565b818101518355602094850194600190930192909101906112c5565b015190508880610c36565b90600a860160005260206000209160005b601f198516811061138b57509183916001936101809695601f19811610611372575b505050811b01600a850155610c4e565b015160001960f88460031b161c19169055888080611362565b91926020600181928685015181550194019201611340565b015190508780610bd0565b9250600986016000526020600020906000935b601f1984168510611405576001945083601f198116106113ec575b505050811b016009840155610be8565b015160001960f88460031b161c191690558780806113dc565b818101518355602094850194600190930192909101906113c1565b015190508780610b59565b9250600686016000526020600020906000935b601f1984168510611482576001945083601f19811610611469575b505050811b016006840155610b71565b015160001960f88460031b161c19169055878080611459565b8181015183556020948501946001909301929091019061143e565b015190508780610aef565b9250600486016000526020600020906000935b601f19841685106114ff576001945083601f198116106114e6575b505050811b016004840155610b07565b015160001960f88460031b161c191690558780806114d6565b818101518355602094850194600190930192909101906114bb565b015190508780610a47565b9250600286016000526020600020906000935b601f198416851061157c576001945083601f19811610611563575b505050811b016002840155610a5f565b015160001960f88460031b161c19169055878080611553565b81810151835560209485019460019093019290910190611538565b0151905087806109d2565b9250856000526020600020906000935b601f19841685106115f3576001945083601f198116106115da575b505050811b0183556109e7565b015160001960f88460031b161c191690558780806115cd565b818101518355602094850194600190930192909101906115b2565b60405161161a81613392565b60048152636e6f6e6560e01b602082015261098c565b60405162461bcd60e51b815260206004820152602760248201527f546f6f6c7320616e6420746f6f6c43686f696365206d75737420626520636f6e6044820152661cda5cdd195b9d60ca1b6064820152608490fd5b50610140820151511515801561095b5750610160820151805180159182156116af575b505061095b565b60208093506116db91836116ce604051958693858501988991016132b1565b81010380845201826133c8565b5190206040516020810190636175746f60e01b8252600481526116fd81613392565b5190201487806116a8565b5061016082015180518015918215611722575b5050610954565b602080935061174191836116ce604051958693858501988991016132b1565b5190206040516020810190636e6f6e6560e01b82526004815261176381613392565b51902014878061171b565b60405162461bcd60e51b8152602060048201526013602482015272496e76616c696420746f6f6c2063686f69636560681b6044820152606490fd5b506101608201516040516117cd602082816116ce81830196878151938492016132b1565b5190206040516020810190636175746f60e01b8252600481526117ef81613392565b51902014610941565b602080935061181791836116ce604051958693858501988991016132b1565b5190206040516020810190636e6f6e6560e01b82526004815261183981613392565b519020148780610938565b9050886108fc565b9050886108e4565b602080935061187391836116ce604051958693858501988991016132b1565b5190206040516e7b2274797065223a2274657874227d60881b60208201908152600f8252906118a181613392565b5190201488806108cc565b601491501315886108b2565b90508a610899565b90508a61087c565b6014915013158a610864565b506118e28251511515613a39565b8151604051611901602082816116ce81830196878151938492016132b1565b51902060405160208101906d363630b6b099969c31169c189c9960911b8252600e815261192d81613392565b519020148015611c05575b8015611bac575b8015611b5a575b15611b15576119b8602083015160000b61196d60131991828112159081611b095750613a85565b61198460408501515115801580611b015750613ad1565b6119a063ffffffff60608601511615801580611af95750613b11565b608084015160000b908112159081611aed5750613b51565b6119d260a083015180518015918215611a95575050613b9d565b6119e860c083015115801580611a8d5750613be9565b6119ff60e08301515115801580611a855750613c24565b611a1160146101008401511115613c68565b611a2360646101208401511115613caa565b6101408201515115801580611a7d575b506109935760405162461bcd60e51b815260206004820152601760248201527f496e76616c69642075736572206964656e7469666965720000000000000000006044820152606490fd5b905086611a33565b9050876108fc565b9050876108e4565b6020809350611ab491836116ce604051958693858501988991016132b1565b5190206040516e7b2274797065223a2274657874227d60881b60208201908152600f825290611ae281613392565b5190201487806108cc565b601491501315876108b2565b905089610899565b90508961087c565b60149150131589610864565b60405162461bcd60e51b815260206004820152601760248201527f496e76616c6964206d6f64656c207370656369666965640000000000000000006044820152606490fd5b508151604051611b7a602082816116ce81830196878151938492016132b1565b51902060405160208101906a19d95b5b584b4dd88b5a5d60aa1b8252600b8152611ba381613392565b51902014611946565b508151604051611bcc602082816116ce81830196878151938492016132b1565b5190206040516020810190710dad2f0e8e4c2d85a70f06ec45a66646e6c760731b825260128152611bfc81613392565b5190201461193f565b508151604051611c25602082816116ce81830196878151938492016132b1565b51902060405160208101906e363630b6b099969b9831169c189c9960891b8252600f8152611c5281613392565b51902014611938565b0151905088806107e2565b9250836000526020600020906000935b601f1984168510611cb7576001945083601f19811610611c9e575b505050811b0190556107f7565b015160001960f88460031b161c19169055888080611c91565b81810151835560209485019460019093019290910190611c76565b6040516339e3563760e11b815260006004820152602490fd5b600086815260046020526040902080546001600160a01b031916905580600052600360205260406000206000198154019055610735565b604051633250574960e11b815260006004820152602490fd5b3461021757600319606036820112610217576001600160401b03906024358281116102175761012080928236030112610217576040519182018281108482111761103157604052806004013583811161021757611d9e9060043691840101613452565b8252602481013583811161021757611dbc9060043691840101613452565b6020830152611dcd60448201613470565b6040830152606481013583811161021757611dee9060043691840101613452565b6060830152608481013583811161021757611e0f9060043691840101613452565b608083015260a481013583811161021757611e6491611e376101049260043691840101613452565b60a0850152611e4860c48201613484565b60c0850152611e5960e48201613484565b60e085015201613484565b61010082015260443591821161021757611e85611ea3923690600401613452565b90611e9b60018060a01b036009541633146141eb565b6004356143e1565b005b3461021757602036600319011261021757600435611ec281613943565b5060005260066020526101aa6101e8611ee5604060002060405192838092613573565b6000604051611ef3816133ad565b526040519182916020835260208301906132d4565b3461021757602036600319011261021757600435600052600c602052604060002060018060a01b038154166101aa600460ff600285015494611f60600382015491611f596040518096819301613573565b03846133c8565b60405195869586526020860152818116604086015260081c161515606084015260a0608084015260a08301906132d4565b346102175760403660031901126102175760043560243563ffffffff811681036102175781611fd5611fc5611ea394613943565b6001600160a01b03163314613ceb565b600052600b60205260186040600020019064ffffffff0082549160081b169064ffffffff001916179055565b346102175760803660031901126102175761201a6132f9565b61202261330f565b606435916001600160401b038311610217573660238401121561021757612056611ea393369060248160040135910161341b565b91604435916137f1565b3461021757602080600319360112610217576001600160401b0360043581811161021757612092903690600401613452565b916120a860018060a01b0360085416331461397e565b8251918211611031576120bc600a54613495565b601f8111612182575b5080601f8311600114612101575081926000926120f6575b5050600019600383901b1c191660019190911b17600a55005b0151905082806120dd565b90601f19831693600a6000527fc65a7bb8d6351c1cf70c95a316cc6a92839c986682d98bc35f958f4883f9d2a8926000905b86821061216a5750508360019510612151575b505050811b01600a55005b015160001960f88460031b161c19169055828080612146565b80600185968294968601518155019501930190612133565b600a6000527fc65a7bb8d6351c1cf70c95a316cc6a92839c986682d98bc35f958f4883f9d2a8601f840160051c8101918385106121dc575b601f0160051c01905b8181106121d057506120c5565b600081556001016121c3565b90915081906121ba565b3461021757600319604036820112610217576004356024356001600160401b0381116102175761221a903690600401613452565b9161222482613943565b6001600160a01b03939061223b9085163314613ceb565b8260005260208092600b82526040600020600d54600052600c8352604060002090336001600160601b0360a01b835416178255600382019788549861ff00198a16815560006002850155601883019960ff8b54169061ffff191617905561231c60178301936122ad8560048301613d43565b6122fb6001604051926122bf84613392565b6040516122cb81613392565b600681526573797374656d60d01b8b82015284526040516122ef816101e8816134cf565b8a850152019182613e4d565b6040519061230882613392565b612310614009565b82528888830152613e4d565b600d5498899261232b84613a14565b600d556123388554613495565b15612420575054612390949392600092909163ffffffff9060081c811680156124145761239f90925b60095416966040519a8b998a98899763a252a95160e01b89526004890152608060248901526084880190613573565b918683030160448701526132d4565b9116606483015203925af18015612408576123df575b50505b7fa3da23794d4f3310acc624c0d47b44c2781e78f71932ad82cf5dea35b80bde13600080a3005b813d8311612401575b6123f281836133c8565b810103126102175782806123b5565b503d6123e8565b6040513d6000823e3d90fd5b5061239f600392612361565b9650509250505060ff60168401541660001461249e5760009261245f916009541690604051948580948193633c38a5f560e01b83528b600484016140f2565b03925af1801561240857612475575b50506123b8565b813d8311612497575b61248881836133c8565b8101031261021757828061246e565b503d61247e565b61245f92600c9160095416906000604051809681958294631e0fca9360e11b8452018b60048401614029565b34610217576000366003190112610217576009546040516001600160a01b039091168152602090f35b346102175760403660031901126102175761250c6132f9565b6024359081151590818303610217576001600160a01b03169182156125885761255a9033600052600560205260406000208460005260205260406000209060ff801983541691151516179055565b6040519081527f17307eab39ab6107e8899845ad3d59bd9653f200f220920489ca2b5937696c3160203392a3005b604051630b61174360e31b815260048101849052602490fd5b3461021757600036600319011261021757604051600060018054906125c582613495565b808552918181169081156126595750600114612600575b6101aa846125ec818603826133c8565b6040519182916020835260208301906132d4565b600081815292507fb10e2d527612073b26eecdfd717e6a320cf44b4afac2b0732d9fcbe2b7fa0cf65b8284106126415750505081016020016125ec826125dc565b80546020858701810191909152909301928101612629565b60ff191660208087019190915292151560051b850190920192506125ec91508390506125dc565b34610217576000366003190112610217576101aa6040516125ec816101e8816134cf565b34610217576060366003190112610217576001600160401b03600435602435828111610217576126d8903690600401613452565b91604435908111610217576126f1903690600401613452565b60095490926001600160a01b039161270c90831633146141eb565b82600052602093600c855260406000209160ff600384015460081c166127e3576127a8949261276b836002938997955115156000146127dc57505b6040519061275482613392565b61275c614009565b82528782015260018301613e4d565b016127768154613a14565b90556009541681600052600b83526040600020916000604051809681958294633c38a5f560e01b8452600484016140f2565b03925af18015612408576127b857005b813d83116127d5575b6127cb81836133c8565b8101031261021757005b503d6127c1565b9050612747565b60405162461bcd60e51b815260048101879052600f60248201526e149d5b881a5cc8199a5b9a5cda1959608a1b6044820152606490fd5b34610217576020366003190112610217576001600160a01b0361283b6132f9565b16801561285a5760005260036020526020604060002054604051908152f35b6040516322718ad960e21b815260006004820152602490fd5b34610217576020366003190112610217576020612891600435613943565b6040516001600160a01b039091168152f35b3461021757602036600319011261021757600435600052600b602052612bd96040600020604051906128d482613376565b6040516128e5816101e88185613573565b8252600181015460000b6020830152604051612908816101e88160028601613573565b6040830152600381015463ffffffff8116606084015260201c60000b608083015260405161293d816101e88160048601613573565b60a0830152600581015460c0830152604051612960816101e88160068601613573565b60e08301526007810154610100830152600881015461012083015260405161298f816101e88160098601613573565b6101408301526040516129a9816101e881600a8601613573565b6101608301526040516129c3816101e881600b8601613573565b61018083015263ffffffff612ca7604051926129de8461335a565b6040516129f2816101e881600c8601613573565b8452600d81015460000b6020850152604051612a15816101e881600e8601613573565b6040850152600f810154838116606086015260201c60000b6080850152604051612a46816101e88160108601613573565b60a0850152601181015460c0850152604051612a69816101e88160128601613573565b60e085015260138101546101008501526014810154610120850152604051612a98816101e88160158601613573565b61014085015260ff60168201541690612c92601860405192612ac884612ac18160178501613573565b03856133c8565b01549560405198899860c08a52610180612bc4612bac612b788d612b56612b24612b0088516101a060c08601526102608501906132d4565b602089015160000b60e0850152604089015184820360bf19016101008601526132d4565b60608801518f16610120840152608088015160000b61014084015260a088015183820360bf19016101608501526132d4565b9060c08701518682015260e0870151906101a060bf19828503019101526132d4565b8d6101c06101008701519101528d6101e06101208701519101528d6101408601519061020060bf19828503019101526132d4565b6101608401518d820360bf19016102208f01526132d4565b9101518a820360bf19016102408c01526132d4565b88810360208a0152610140612c68612c4c612c21612c02865161016087526101608701906132d4565b602087015160000b6020870152604087015186820360408801526132d4565b8a6060870151166060860152608086015160000b608086015260a086015185820360a08701526132d4565b60c085015160c085015260e085015184820360e08601526132d4565b926101008101516101008401526101208101516101208401520151906101408184039101526132d4565b911515604087015285820360608701526132d4565b9160ff8116608085015260081c1660a08301520390f35b3461021757600319606036820112610217576024356001600160401b0391828211610217576101609082360301126102175760405190612cfd8261335a565b806004013583811161021757612d199060043691840101613452565b8252602481013583811161021757612d379060043691840101613452565b6020830152604481013583811161021757612d589060043691840101613452565b6040830152606481013583811161021757612d799060043691840101613452565b6060830152612d8a60848201613470565b608083015260a481013583811161021757612dab9060043691840101613452565b60a083015260c481013583811161021757612dcc9060043691840101613452565b60c083015260e481013583811161021757612e2591612df46101449260043691840101613452565b60e0850152612e066101048201613484565b610100850152612e196101248201613484565b61012085015201613484565b61014082015260443591821161021757612e46611ea3923690600401613452565b90612e5c60018060a01b036009541633146141eb565b600435614253565b3461021757602036600319011261021757612e7d6132f9565b6008546001600160a01b03919082163314612e978161397e565b15612ed85716806001600160601b0360a01b60095416176009557f107a9fafffb7ac890f780879e423760c9ffea8dcee8045681f40f542aede2cb8600080a2005b60405162461bcd60e51b815260206004820152601760248201527f43616c6c6572206973206e6f7420746865206f776e65720000000000000000006044820152606490fd5b3461021757611ea3612f2e36613325565b9060405192612f3c846133ad565b600084526137f1565b3461021757602036600319011261021757600435600052600c602052602060ff60036040600020015460081c166040519015158152f35b34610217576060366003190112610217576001600160401b0360248035828111610217573660238201121561021757806004013590612fba826133e9565b92612fc860405194856133c8565b828452602092818486019160051b8401019236841161021757828101915b848310613027576044358789821161021757613009611ea3923690600401613452565b9061301f60018060a01b036009541633146141eb565b6004356144e6565b82358881116102175786916130428392873691870101613452565b815201920191612fe6565b3461021757611ea361305e36613325565b9161366b565b346102175760403660031901126102175761307d6132f9565b60243561308981613943565b33151580613138575b8061310b575b6130f3576001600160a01b039283169282918491167f8c5be1e5ebec7d5bd14f71427d1e84f3dd0314c0f7b2291e5b200ac8c7c3b925600080a4600090815260046020526040902080546001600160a01b0319169091179055005b60405163a9fbf51f60e01b8152336004820152602490fd5b5060018060a01b038116600052600560205260406000203360005260205260ff6040600020541615613098565b506001600160a01b038116331415613092565b346102175760203660031901126102175760043561316881613943565b506000526004602052602060018060a01b0360406000205416604051908152f35b3461021757600036600319011261021757604051600080546131aa81613495565b8084529060019081811690811561265957506001146131d3576101aa846125ec818603826133c8565b600080805292507f290decd9548b62a8d60345a988386fc84ba6bc95484008f6362f93160ef3e5635b8284106132145750505081016020016125ec826125dc565b805460208587018101919091529093019281016131fc565b34610217576020366003190112610217576004359063ffffffff60e01b821680920361021757602091632483248360e11b811490811561326e575b5015158152f35b6380ac58cd60e01b8114915081156132a0575b811561328f575b5083613267565b6301ffc9a760e01b14905083613288565b635b5e139f60e01b81149150613281565b60005b8381106132c45750506000910152565b81810151838201526020016132b4565b906020916132ed815180928185528580860191016132b1565b601f01601f1916010190565b600435906001600160a01b038216820361021757565b602435906001600160a01b038216820361021757565b6060906003190112610217576001600160a01b0390600435828116810361021757916024359081168103610217579060443590565b61016081019081106001600160401b0382111761103157604052565b6101a081019081106001600160401b0382111761103157604052565b604081019081106001600160401b0382111761103157604052565b602081019081106001600160401b0382111761103157604052565b90601f801991011681019081106001600160401b0382111761103157604052565b6001600160401b0381116110315760051b60200190565b6001600160401b03811161103157601f01601f191660200190565b92919261342782613400565b9161343560405193846133c8565b829481845281830111610217578281602093846000960137010152565b9080601f830112156102175781602061346d9335910161341b565b90565b35906001600160401b038216820361021757565b359063ffffffff8216820361021757565b90600182811c921680156134c5575b60208310146134af57565b634e487b7160e01b600052602260045260246000fd5b91607f16916134a4565b600a54600092916134df82613495565b8082529160019081811690811561355657506001146134fd57505050565b91929350600a6000527fc65a7bb8d6351c1cf70c95a316cc6a92839c986682d98bc35f958f4883f9d2a8916000925b84841061353e57505060209250010190565b8054602085850181019190915290930192810161352c565b915050602093945060ff929192191683830152151560051b010190565b906000929180549161358483613495565b9182825260019384811690816000146135e657506001146135a6575b50505050565b90919394506000526020928360002092846000945b8386106135d25750505050010190388080806135a0565b8054858701830152940193859082016135bb565b9294505050602093945060ff191683830152151560051b010190388080806135a0565b602080820190808352835180925260408301928160408460051b8301019501936000915b84831061363d5750505050505090565b909192939495848061365b600193603f198682030187528a516132d4565b980193019301919493929061362d565b6001600160a01b039182169290918315611d225760009282845282602095600287526040968488882054169687913315158061375b575b509060027fddf252ad1be2c89b69c2b068fc378daa952ba7f163c4a11628f55a4df523b3ef9284613728575b858352600381528b8320805460010190558683525289812080546001600160a01b0319168517905580a416928383036137075750505050565b6064945051926364283d7b60e01b8452600484015260248301526044820152fd5b600087815260046020526040902080546001600160a01b0319169055848352600381528b832080546000190190556136ce565b919394509150806137b0575b15613777578592918791386136a2565b878688613794576024915190637e27328960e01b82526004820152fd5b604491519063177e802f60e01b82523360048301526024820152fd5b5033871480156137d5575b806137675750858252600481523385898420541614613767565b5086825260058152878220338352815260ff88832054166137bb565b6137fc83838361366b565b813b6138085750505050565b604051630a85bd0160e11b8082523360048301526001600160a01b039283166024830152604482019490945260806064820152602095929091169390929083906138569060848301906132d4565b039285816000958187895af18491816138ff575b506138ca575050503d6000146138c2573d61388481613400565b9061389260405192836133c8565b81528091843d92013e5b805192836138bd57604051633250574960e11b815260048101849052602490fd5b019050fd5b50606061389c565b919450915063ffffffff60e01b16036138e75750388080806135a0565b60249060405190633250574960e11b82526004820152fd5b9091508681813d831161393c575b61391781836133c8565b8101031261393857516001600160e01b03198116810361393857903861386a565b8480fd5b503d61390d565b6000818152600260205260409020546001600160a01b0316908115613966575090565b60249060405190637e27328960e01b82526004820152fd5b1561398557565b60405162461bcd60e51b815260206004820152601360248201527221b0b63632b91034b9903737ba1037bbb732b960691b6044820152606490fd5b90601f81116139ce57505050565b600091825260208220906020601f850160051c83019410613a0a575b601f0160051c01915b8281106139ff57505050565b8181556001016139f3565b90925082906139ea565b6000198114613a235760010190565b634e487b7160e01b600052601160045260246000fd5b15613a4057565b60405162461bcd60e51b815260206004820152601760248201527f4d6f64656c206d757374206265207370656369666965640000000000000000006044820152606490fd5b15613a8c57565b60405162461bcd60e51b815260206004820152601960248201527f496e76616c6964206672657175656e63792070656e616c7479000000000000006044820152606490fd5b15613ad857565b60405162461bcd60e51b8152602060048201526011602482015270496e76616c6964206c6f6769744269617360781b6044820152606490fd5b15613b1857565b60405162461bcd60e51b8152602060048201526011602482015270496e76616c6964206d6178546f6b656e7360781b6044820152606490fd5b15613b5857565b60405162461bcd60e51b815260206004820152601860248201527f496e76616c69642070726573656e63652070656e616c747900000000000000006044820152606490fd5b15613ba457565b60405162461bcd60e51b815260206004820152601760248201527f496e76616c696420726573706f6e736520666f726d61740000000000000000006044820152606490fd5b15613bf057565b60405162461bcd60e51b815260206004820152600c60248201526b125b9d985b1a59081cd9595960a21b6044820152606490fd5b15613c2b57565b60405162461bcd60e51b8152602060048201526015602482015274496e76616c69642073746f702073657175656e636560581b6044820152606490fd5b15613c6f57565b60405162461bcd60e51b8152602060048201526013602482015272496e76616c69642074656d706572617475726560681b6044820152606490fd5b15613cb157565b60405162461bcd60e51b8152602060048201526012602482015271496e76616c696420746f70502076616c756560701b6044820152606490fd5b15613cf257565b60405162461bcd60e51b8152602060048201526024808201527f43616c6c6572206973206e6f7420746865206f776e6572206f6620746865206160448201526319d95b9d60e21b6064820152608490fd5b90808214613e1757613d558154613495565b906001600160401b038211611031578190613d74826107c68654613495565b600090601f8311600114613dab57600092613da0575b50508160011b916000199060031b1c1916179055565b015490503880613d8a565b81526020808220858352818320935090601f1985169083905b828210613dfe575050908460019594939210613de5575b505050811b019055565b015460001960f88460031b161c19169055388080613ddb565b8495819295850154815560018091019601940190613dc4565b5050565b8054821015613e375760005260206000209060011b0190600090565b634e487b7160e01b600052603260045260246000fd5b80546801000000000000000081101561103157613e71906001928382018155613e1b565b613ff3578251908151916001600160401b0392838111611031578491613e9b826107c68654613495565b602090601f8311600114613f8a57602094929160009183613f7f575b5050600019600383901b1c191690831b1781555b01930151805191821161103157613ee6826107c68654613495565b602090601f8311600114613f2057928293918392600094613f15575b50501b916000199060031b1c1916179055565b015192503880613f02565b90601f198316918560005283826000209360005b87828210613f6657505010613f4d57505050811b019055565b015160001960f88460031b161c19169055388080613ddb565b8486015187559095019460209485019487935001613f34565b015190503880613eb7565b90601f1983169185600052816000209260005b818110613fdb57509185939185602098969410613fc2575b505050811b018155613ecb565b015160001960f88460031b161c19169055388080613fb5565b82840151855589969094019360209384019301613f9d565b634e487b7160e01b600052600060045260246000fd5b6040519061401682613392565b60048252633ab9b2b960e11b6020830152565b9061346d92600991835260406020840152610160928360408201526101806140556101a0830184613573565b600184015460000b60608401526140d06140b1614082603f19938487820301608088015260028801613573565b600387015463ffffffff811660a088015260201c60000b60c0870152838682030160e087015260048701613573565b6005860154610100860152828582030161012086015260068601613573565b9560078501546101408501526008850154908401528286030191015201613573565b9061346d92600b918352604060208401526101a0928360408201526101c06141dd6141216101e0840185613573565b95600185015460000b60608501526141ca6141a0614181614152603f199a8b8982030160808a015260028a01613573565b600389015463ffffffff811660a08a015260201c60000b60c08901528a8882030160e089015260048901613573565b6005880154610100880152898782030161012088015260068801613573565b60078701546101408701526008870154610160870152888682030161018087015260098701613573565b90878583030190850152600a8501613573565b948286030191015201613573565b156141f257565b60405162461bcd60e51b815260206004820152601460248201527343616c6c6572206973206e6f74206f7261636c6560601b6044820152606490fd5b6040519061423b82613392565b6009825268185cdcda5cdd185b9d60ba1b6020830152565b600092818452602092600c8452604091828620908051614393575060028101908154600382019081549060ff8216111561437f575050858301518051614345575b5050508181015180516142a957505050505050565b84916142ed9187606060018060a01b0360095416930151966142ff875198899687958694634b04236b60e01b865260048601526060602486015260648501906132d4565b838103600319016044850152906132d4565b03925af190811561433c575061431457505050565b813d8311614335575b61432781836133c8565b810103126143325750565b80fd5b503d61431d565b513d85823e3d90fd5b600161436b9286519261435784613392565b61435f61422e565b84528984015201613e4d565b6143758154613a14565b9055388080614294565b61ff00191661010017905550505050505050565b91509391600395506143c1935051916143ab83613392565b6143b361422e565b835282015260018301613e4d565b600281016143cf8154613a14565b905501805461ff001916610100179055565b91600092808452602092600c84526040928386209080516144ba57506002810190815492600382019384549060ff821611156144a557508601518051614480575b50505481549060ff8216111561446f57505090826142ff9260018060a01b0360095416818752600b8352600c8488200191878551809781958294631e0fca9360e11b845260048401614029565b61ff00191661010017905550505050565b60016144929287519261435784613392565b61449c8154613a14565b81553880614422565b61ff0019166101001790935550505050505050565b9150939150600394506143c19251916143ab83613392565b8051821015613e375760209160051b010190565b90600092828452602092600c8452604091828620600190818101805491600019948584019380851161486a5715158061479b575b15614757578051614728575050829161453291613e1b565b50019184519561454d876145468187613573565b03886133c8565b86815161465b575b50508551916001600160401b0383116146475790829161457c85946107c68b989754613495565b8597601f84116001146145e4578392916142ff9984928d956145d9575b50501b9260031b1c19161790555b60018060a01b0360095416818752600b835283872091878551809781958294633c38a5f560e01b8452600484016140f2565b015193503880614599565b97909291601f19831691858c52878c20928c5b818110614631575099846142ff9b10614619575b50505050811b0190556145a7565b01519060f88460031b161c191690553880808061460b565b828c015185558c999487019492830192016145f7565b634e487b7160e01b89526041600452602489fd5b839197506146a7603488518361467b8d83965192818492860191016132b1565b81017305052932b632bb30b73a1031b7b73a32bc3a1d0560611b8d8201520360148101845201826133c8565b9689915b156145555790968151881015614722579061471c849261471660216146d08c866144d2565b51928d8c5194826146ea87945180928580880191016132b1565b83016146fe825180938580850191016132b1565b600560f91b91019182015203868101845201826133c8565b98613a14565b916146ab565b96614555565b945097959250935050600396506143c19450519261474584613392565b61474d61422e565b8452830152613e4d565b875162461bcd60e51b8152600481018b9052601c60248201527f4e6f206d65737361676520746f2061646420636f6e7465787420746f000000006044820152606490fd5b506147a68484613e1b565b508a8c8a519283919080546147ba81613495565b94818c1691821561484b57505060011461480f575b506147e3925003601f1981018352826133c8565b8a815191012088518b810190633ab9b2b960e11b82526004815261480681613392565b5190201461451a565b8f908f92508152898282205b858310614832575050506147e392820101386147cf565b8091929450548385880101520191018d9089859361481b565b60ff1916858201526147e3958015150285010192503891506147cf9050565b634e487b7160e01b8c52601160045260248cfd5b90614888826133e9565b61489560405191826133c8565b82815280926148a6601f19916133e9565b019060005b8281106148b757505050565b8060606020809385010152016148ab56fea2646970667358221220819e351265ac9615ea31339f746dcf52fe37a7ace0009e162958450e8f31ceb264736f6c63430008140033",
  "linkReferences": {},
  "deployedLinkReferences": {}
}