{
  "_format": "hh-sol-artifact-1",
  "contractName": "AgentManager",
  "sourceName": "contracts/AgentManager.sol",
  "abi": [
    {
      "inputs": [
        {
          "internalType": "address",
          "name": "initialOracleAddress",
          "type": "address"
        },
        {
          "internalType": "string",
          "name": "initialPrompt",
          "type": "string"
        }
      ],
      "stateMutability": "nonpayable",
      "type": "constructor"
    },
    {
      "inputs": [
        {
          "internalType": "address",
          "name": "sender",
          "type": "address"
        },
        {
          "internalType": "uint256",
          "name": "tokenId",
          "type": "uint256"
        },
        {
          "internalType": "address",
          "name": "owner",
          "type": "address"
        }
      ],
      "name": "ERC721IncorrectOwner",
      "type": "error"
    },
    {
      "inputs": [
        {
          "internalType": "address",
          "name": "operator",
          "type": "address"
        },
        {
          "internalType": "uint256",
          "name": "tokenId",
          "type": "uint256"
        }
      ],
      "name": "ERC721InsufficientApproval",
      "type": "error"
    },
    {
      "inputs": [
        {
          "internalType": "address",
          "name": "approver",
          "type": "address"
        }
      ],
      "name": "ERC721InvalidApprover",
      "type": "error"
    },
    {
      "inputs": [
        {
          "internalType": "address",
          "name": "operator",
          "type": "address"
        }
      ],
      "name": "ERC721InvalidOperator",
      "type": "error"
    },
    {
      "inputs": [
        {
          "internalType": "address",
          "name": "owner",
          "type": "address"
        }
      ],
      "name": "ERC721InvalidOwner",
      "type": "error"
    },
    {
      "inputs": [
        {
          "internalType": "address",
          "name": "receiver",
          "type": "address"
        }
      ],
      "name": "ERC721InvalidReceiver",
      "type": "error"
    },
    {
      "inputs": [
        {
          "internalType": "address",
          "name": "sender",
          "type": "address"
        }
      ],
      "name": "ERC721InvalidSender",
      "type": "error"
    },
    {
      "inputs": [
        {
          "internalType": "uint256",
          "name": "tokenId",
          "type": "uint256"
        }
      ],
      "name": "ERC721NonexistentToken",
      "type": "error"
    },
    {
      "anonymous": false,
      "inputs": [
        {
          "indexed": true,
          "internalType": "uint256",
          "name": "tokenId",
          "type": "uint256"
        },
        {
          "indexed": true,
          "internalType": "address",
          "name": "owner",
          "type": "address"
        }
      ],
      "name": "AgentDeployed",
      "type": "event"
    },
    {
      "anonymous": false,
      "inputs": [
        {
          "indexed": true,
          "internalType": "address",
          "name": "owner",
          "type": "address"
        },
        {
          "indexed": true,
          "internalType": "address",
          "name": "approved",
          "type": "address"
        },
        {
          "indexed": true,
          "internalType": "uint256",
          "name": "tokenId",
          "type": "uint256"
        }
      ],
      "name": "Approval",
      "type": "event"
    },
    {
      "anonymous": false,
      "inputs": [
        {
          "indexed": true,
          "internalType": "address",
          "name": "owner",
          "type": "address"
        },
        {
          "indexed": true,
          "internalType": "address",
          "name": "operator",
          "type": "address"
        },
        {
          "indexed": false,
          "internalType": "bool",
          "name": "approved",
          "type": "bool"
        }
      ],
      "name": "ApprovalForAll",
      "type": "event"
    },
    {
      "anonymous": false,
      "inputs": [
        {
          "indexed": false,
          "internalType": "uint256",
          "name": "_fromTokenId",
          "type": "uint256"
        },
        {
          "indexed": false,
          "internalType": "uint256",
          "name": "_toTokenId",
          "type": "uint256"
        }
      ],
      "name": "BatchMetadataUpdate",
      "type": "event"
    },
    {
      "anonymous": false,
      "inputs": [
        {
          "indexed": false,
          "internalType": "uint256",
          "name": "_tokenId",
          "type": "uint256"
        }
      ],
      "name": "MetadataUpdate",
      "type": "event"
    },
    {
      "anonymous": false,
      "inputs": [
        {
          "indexed": true,
          "internalType": "address",
          "name": "from",
          "type": "address"
        },
        {
          "indexed": true,
          "internalType": "address",
          "name": "to",
          "type": "address"
        },
        {
          "indexed": true,
          "internalType": "uint256",
          "name": "tokenId",
          "type": "uint256"
        }
      ],
      "name": "Transfer",
      "type": "event"
    },
    {
      "inputs": [
        {
          "internalType": "uint256",
          "name": "",
          "type": "uint256"
        }
      ],
      "name": "agentConfigs",
      "outputs": [
        {
          "components": [
            {
              "internalType": "string",
              "name": "model",
              "type": "string"
            },
            {
              "internalType": "int8",
              "name": "frequencyPenalty",
              "type": "int8"
            },
            {
              "internalType": "string",
              "name": "logitBias",
              "type": "string"
            },
            {
              "internalType": "uint32",
              "name": "maxTokens",
              "type": "uint32"
            },
            {
              "internalType": "int8",
              "name": "presencePenalty",
              "type": "int8"
            },
            {
              "internalType": "string",
              "name": "responseFormat",
              "type": "string"
            },
            {
              "internalType": "uint256",
              "name": "seed",
              "type": "uint256"
            },
            {
              "internalType": "string",
              "name": "stop",
              "type": "string"
            },
            {
              "internalType": "uint256",
              "name": "temperature",
              "type": "uint256"
            },
            {
              "internalType": "uint256",
              "name": "topP",
              "type": "uint256"
            },
            {
              "internalType": "string",
              "name": "tools",
              "type": "string"
            },
            {
              "internalType": "string",
              "name": "toolChoice",
              "type": "string"
            },
            {
              "internalType": "string",
              "name": "user",
              "type": "string"
            }
          ],
          "internalType": "struct IOracle.OpenAiRequest",
          "name": "openAiConfig",
          "type": "tuple"
        },
        {
          "components": [
            {
              "internalType": "string",
              "name": "model",
              "type": "string"
            },
            {
              "internalType": "int8",
              "name": "frequencyPenalty",
              "type": "int8"
            },
            {
              "internalType": "string",
              "name": "logitBias",
              "type": "string"
            },
            {
              "internalType": "uint32",
              "name": "maxTokens",
              "type": "uint32"
            },
            {
              "internalType": "int8",
              "name": "presencePenalty",
              "type": "int8"
            },
            {
              "internalType": "string",
              "name": "responseFormat",
              "type": "string"
            },
            {
              "internalType": "uint256",
              "name": "seed",
              "type": "uint256"
            },
            {
              "internalType": "string",
              "name": "stop",
              "type": "string"
            },
            {
              "internalType": "uint256",
              "name": "temperature",
              "type": "uint256"
            },
            {
              "internalType": "uint256",
              "name": "topP",
              "type": "uint256"
            },
            {
              "internalType": "string",
              "name": "user",
              "type": "string"
            }
          ],
          "internalType": "struct IOracle.GroqRequest",
          "name": "groqConfig",
          "type": "tuple"
        },
        {
          "internalType": "bool",
          "name": "useOpenAi",
          "type": "bool"
        },
        {
          "internalType": "string",
          "name": "knowledgeBase",
          "type": "string"
        }
      ],
      "stateMutability": "view",
      "type": "function"
    },
    {
      "inputs": [
        {
          "internalType": "address",
          "name": "to",
          "type": "address"
        },
        {
          "internalType": "uint256",
          "name": "tokenId",
          "type": "uint256"
        }
      ],
      "name": "approve",
      "outputs": [],
      "stateMutability": "nonpayable",
      "type": "function"
    },
    {
      "inputs": [
        {
          "internalType": "address",
          "name": "owner",
          "type": "address"
        }
      ],
      "name": "balanceOf",
      "outputs": [
        {
          "internalType": "uint256",
          "name": "",
          "type": "uint256"
        }
      ],
      "stateMutability": "view",
      "type": "function"
    },
    {
      "inputs": [
        {
          "components": [
            {
              "internalType": "string",
              "name": "model",
              "type": "string"
            },
            {
              "internalType": "int8",
              "name": "frequencyPenalty",
              "type": "int8"
            },
            {
              "internalType": "string",
              "name": "logitBias",
              "type": "string"
            },
            {
              "internalType": "uint32",
              "name": "maxTokens",
              "type": "uint32"
            },
            {
              "internalType": "int8",
              "name": "presencePenalty",
              "type": "int8"
            },
            {
              "internalType": "string",
              "name": "responseFormat",
              "type": "string"
            },
            {
              "internalType": "uint256",
              "name": "seed",
              "type": "uint256"
            },
            {
              "internalType": "string",
              "name": "stop",
              "type": "string"
            },
            {
              "internalType": "uint256",
              "name": "temperature",
              "type": "uint256"
            },
            {
              "internalType": "uint256",
              "name": "topP",
              "type": "uint256"
            },
            {
              "internalType": "string",
              "name": "tools",
              "type": "string"
            },
            {
              "internalType": "string",
              "name": "toolChoice",
              "type": "string"
            },
            {
              "internalType": "string",
              "name": "user",
              "type": "string"
            }
          ],
          "internalType": "struct IOracle.OpenAiRequest",
          "name": "openAiConfig",
          "type": "tuple"
        },
        {
          "components": [
            {
              "internalType": "string",
              "name": "model",
              "type": "string"
            },
            {
              "internalType": "int8",
              "name": "frequencyPenalty",
              "type": "int8"
            },
            {
              "internalType": "string",
              "name": "logitBias",
              "type": "string"
            },
            {
              "internalType": "uint32",
              "name": "maxTokens",
              "type": "uint32"
            },
            {
              "internalType": "int8",
              "name": "presencePenalty",
              "type": "int8"
            },
            {
              "internalType": "string",
              "name": "responseFormat",
              "type": "string"
            },
            {
              "internalType": "uint256",
              "name": "seed",
              "type": "uint256"
            },
            {
              "internalType": "string",
              "name": "stop",
              "type": "string"
            },
            {
              "internalType": "uint256",
              "name": "temperature",
              "type": "uint256"
            },
            {
              "internalType": "uint256",
              "name": "topP",
              "type": "uint256"
            },
            {
              "internalType": "string",
              "name": "user",
              "type": "string"
            }
          ],
          "internalType": "struct IOracle.GroqRequest",
          "name": "groqConfig",
          "type": "tuple"
        },
        {
          "internalType": "bool",
          "name": "useOpenAi",
          "type": "bool"
        },
        {
          "internalType": "string",
          "name": "tokenURI",
          "type": "string"
        },
        {
          "internalType": "string",
          "name": "knowledgeBase",
          "type": "string"
        },
        {
          "internalType": "string",
          "name": "tools",
          "type": "string"
        }
      ],
      "name": "deployAgent",
      "outputs": [
        {
          "internalType": "uint256",
          "name": "",
          "type": "uint256"
        }
      ],
      "stateMutability": "nonpayable",
      "type": "function"
    },
    {
      "inputs": [
        {
          "internalType": "uint256",
          "name": "tokenId",
          "type": "uint256"
        }
      ],
      "name": "getApproved",
      "outputs": [
        {
          "internalType": "address",
          "name": "",
          "type": "address"
        }
      ],
      "stateMutability": "view",
      "type": "function"
    },
    {
      "inputs": [
        {
          "internalType": "address",
          "name": "owner",
          "type": "address"
        },
        {
          "internalType": "address",
          "name": "operator",
          "type": "address"
        }
      ],
      "name": "isApprovedForAll",
      "outputs": [
        {
          "internalType": "bool",
          "name": "",
          "type": "bool"
        }
      ],
      "stateMutability": "view",
      "type": "function"
    },
    {
      "inputs": [],
      "name": "name",
      "outputs": [
        {
          "internalType": "string",
          "name": "",
          "type": "string"
        }
      ],
      "stateMutability": "view",
      "type": "function"
    },
    {
      "inputs": [],
      "name": "oracleAddress",
      "outputs": [
        {
          "internalType": "address",
          "name": "",
          "type": "address"
        }
      ],
      "stateMutability": "view",
      "type": "function"
    },
    {
      "inputs": [
        {
          "internalType": "uint256",
          "name": "tokenId",
          "type": "uint256"
        }
      ],
      "name": "ownerOf",
      "outputs": [
        {
          "internalType": "address",
          "name": "",
          "type": "address"
        }
      ],
      "stateMutability": "view",
      "type": "function"
    },
    {
      "inputs": [],
      "name": "prompt",
      "outputs": [
        {
          "internalType": "string",
          "name": "",
          "type": "string"
        }
      ],
      "stateMutability": "view",
      "type": "function"
    },
    {
      "inputs": [
        {
          "internalType": "uint256",
          "name": "tokenId",
          "type": "uint256"
        },
        {
          "internalType": "string",
          "name": "query",
          "type": "string"
        },
        {
          "internalType": "uint8",
          "name": "maxIterations",
          "type": "uint8"
        }
      ],
      "name": "runAgent",
      "outputs": [],
      "stateMutability": "nonpayable",
      "type": "function"
    },
    {
      "inputs": [
        {
          "internalType": "address",
          "name": "from",
          "type": "address"
        },
        {
          "internalType": "address",
          "name": "to",
          "type": "address"
        },
        {
          "internalType": "uint256",
          "name": "tokenId",
          "type": "uint256"
        }
      ],
      "name": "safeTransferFrom",
      "outputs": [],
      "stateMutability": "nonpayable",
      "type": "function"
    },
    {
      "inputs": [
        {
          "internalType": "address",
          "name": "from",
          "type": "address"
        },
        {
          "internalType": "address",
          "name": "to",
          "type": "address"
        },
        {
          "internalType": "uint256",
          "name": "tokenId",
          "type": "uint256"
        },
        {
          "internalType": "bytes",
          "name": "data",
          "type": "bytes"
        }
      ],
      "name": "safeTransferFrom",
      "outputs": [],
      "stateMutability": "nonpayable",
      "type": "function"
    },
    {
      "inputs": [
        {
          "internalType": "address",
          "name": "operator",
          "type": "address"
        },
        {
          "internalType": "bool",
          "name": "approved",
          "type": "bool"
        }
      ],
      "name": "setApprovalForAll",
      "outputs": [],
      "stateMutability": "nonpayable",
      "type": "function"
    },
    {
      "inputs": [
        {
          "internalType": "address",
          "name": "newOracleAddress",
          "type": "address"
        }
      ],
      "name": "setOracleAddress",
      "outputs": [],
      "stateMutability": "nonpayable",
      "type": "function"
    },
    {
      "inputs": [
        {
          "internalType": "string",
          "name": "newPrompt",
          "type": "string"
        }
      ],
      "name": "setPrompt",
      "outputs": [],
      "stateMutability": "nonpayable",
      "type": "function"
    },
    {
      "inputs": [
        {
          "internalType": "bytes4",
          "name": "interfaceId",
          "type": "bytes4"
        }
      ],
      "name": "supportsInterface",
      "outputs": [
        {
          "internalType": "bool",
          "name": "",
          "type": "bool"
        }
      ],
      "stateMutability": "view",
      "type": "function"
    },
    {
      "inputs": [],
      "name": "symbol",
      "outputs": [
        {
          "internalType": "string",
          "name": "",
          "type": "string"
        }
      ],
      "stateMutability": "view",
      "type": "function"
    },
    {
      "inputs": [
        {
          "internalType": "uint256",
          "name": "tokenId",
          "type": "uint256"
        }
      ],
      "name": "tokenURI",
      "outputs": [
        {
          "internalType": "string",
          "name": "",
          "type": "string"
        }
      ],
      "stateMutability": "view",
      "type": "function"
    },
    {
      "inputs": [
        {
          "internalType": "address",
          "name": "from",
          "type": "address"
        },
        {
          "internalType": "address",
          "name": "to",
          "type": "address"
        },
        {
          "internalType": "uint256",
          "name": "tokenId",
          "type": "uint256"
        }
      ],
      "name": "transferFrom",
      "outputs": [],
      "stateMutability": "nonpayable",
      "type": "function"
    }
  ],
  "bytecode": "0x6080604052346200051e5762006395803803806200001d8162000559565b9283398101906040818303126200051e5780516001600160a01b038116908190036200051e576020828101516001600160401b03938482116200051e570193601f918183870112156200051e5785518581116200052357601f1996620000898286018916840162000559565b938285528383830101116200051e57829060005b8381106200050957505060009184010152620000b862000539565b9360088552671059d95b9d13919560c21b82860152620000d762000539565b90600491828152631051d39560e21b8482015286518881116200040d57600054976001988981811c91168015620004fe575b87821014620004e95790818984931162000493575b5086908983116001146200042e5760009262000422575b5050600019600383901b1c191690881b176000555b8051908882116200040d5787548881811c9116801562000402575b86821014620003ed5790818884931162000397575b508590888311600114620003335760009262000327575b5050600019600383901b1c191690871b1786555b60018060a01b031933816008541617600855600954161760095582519586116200031257600a54908582811c9216801562000307575b83831014620002f25750838111620002a6575b50809285116001146200023b5750839450908392916000946200022f575b50501b916000199060031b1c191617600a555b604051615e159081620005808239f35b0151925038806200020c565b929484908116600a60005284600020946000905b888383106200028b575050501062000271575b505050811b01600a556200021f565b015160001960f88460031b161c1916905538808062000262565b8587015188559096019594850194879350908101906200024f565b600a600052816000208480880160051c820192848910620002e8575b0160051c019085905b828110620002db575050620001ee565b60008155018590620002cb565b92508192620002c2565b602290634e487b7160e01b6000525260246000fd5b91607f1691620001db565b604190634e487b7160e01b6000525260246000fd5b01519050388062000191565b908b8a94169184600052876000209260005b8982821062000380575050841162000366575b505050811b018655620001a5565b015160001960f88460031b161c1916905538808062000358565b8385015186558d9790950194938401930162000345565b90915088600052856000208880850160051c820192888610620003e3575b918b91869594930160051c01915b828110620003d35750506200017a565b600081558594508b9101620003c3565b92508192620003b5565b602285634e487b7160e01b6000525260246000fd5b90607f169062000165565b604184634e487b7160e01b6000525260246000fd5b01519050388062000135565b908c8b94169160008052886000209260005b8a8282106200047c575050841162000462575b505050811b016000556200014a565b015160001960f88460031b161c1916905538808062000453565b8385015186558e9790950194938401930162000440565b90915060008052866000208980850160051c820192898610620004df575b918c91869594930160051c01915b828110620004cf5750506200011e565b600081558594508c9101620004bf565b92508192620004b1565b602286634e487b7160e01b6000525260246000fd5b90607f169062000109565b8181018301518682018401528492016200009d565b600080fd5b634e487b7160e01b600052604160045260246000fd5b60408051919082016001600160401b038111838210176200052357604052565b6040519190601f01601f191682016001600160401b03811183821017620005235760405256fe60808060405260043610156200001457600080fd5b60003560e01c90816301ffc9a714620029265750806306fdde031462002876578063081812fc1462002834578063095ea7b3146200274257806322c6e3701462000f2657806323b872dd1462000f0a57806342842e0e1462000edb5780634c69c00f1462000e84578063584d5e491462000bec5780635caf3ac314620006965780636352211e146200066257806370a0823114620006045780637c65d71114620005da57806395d89b4114620004eb578063a22cb4651462000436578063a89ae4ba146200040b578063b4ac024f1462000258578063b88d4fde14620001eb578063c87b56dd14620001715763e985e9c5146200011057600080fd5b346200016c5760403660031901126200016c576200012d620029f6565b6200013762002a0d565b9060018060a01b03809116600052600560205260406000209116600052602052602060ff604060002054166040519015158152f35b600080fd5b346200016c5760203660031901126200016c57600435620001928162003190565b506000526006602052620001e7620001b9620001c160406000206040519283809262002c46565b038262002a7a565b6000604051620001d18162002a5e565b52604051918291602083526020830190620029b4565b0390f35b346200016c5760803660031901126200016c5762000208620029f6565b6200021262002a0d565b606435916001600160401b0383116200016c57366023840112156200016c576200024b6200025693369060248160040135910162002ab8565b916044359162003027565b005b346200016c576020806003193601126200016c576001600160401b036004358181116200016c576200028f90369060040162002af4565b91620002a760018060a01b03600854163314620031cc565b8251918211620003f557620002be600a5462002b5f565b601f81116200038c575b5080601f83116001146200030757508192600092620002fb575b5050600019600383901b1c191660019190911b17600a55005b015190508280620002e2565b90601f19831693600a6000527fc65a7bb8d6351c1cf70c95a316cc6a92839c986682d98bc35f958f4883f9d2a8926000905b86821062000373575050836001951062000359575b505050811b01600a55005b015160001960f88460031b161c191690558280806200034e565b8060018596829496860151815501950193019062000339565b600a6000527fc65a7bb8d6351c1cf70c95a316cc6a92839c986682d98bc35f958f4883f9d2a8601f840160051c810191838510620003ea575b601f0160051c01905b818110620003dd5750620002c8565b60008155600101620003ce565b9091508190620003c5565b634e487b7160e01b600052604160045260246000fd5b346200016c5760003660031901126200016c576009546040516001600160a01b039091168152602090f35b346200016c5760403660031901126200016c5762000453620029f6565b60243590811515908183036200016c576001600160a01b0316918215620004d257620004a49033600052600560205260406000208460005260205260406000209060ff801983541691151516179055565b6040519081527f17307eab39ab6107e8899845ad3d59bd9653f200f220920489ca2b5937696c3160203392a3005b604051630b61174360e31b815260048101849052602490fd5b346200016c5760003660031901126200016c5760405160006001805490620005138262002b5f565b80855291818116908115620005b1575060011462000554575b620001e7846200053f8186038262002a7a565b604051918291602083526020830190620029b4565b600081815292507fb10e2d527612073b26eecdfd717e6a320cf44b4afac2b0732d9fcbe2b7fa0cf65b828410620005985750505081016020016200053f826200052c565b805460208587018101919091529093019281016200057d565b60ff191660208087019190915292151560051b850190920192506200053f91508390506200052c565b346200016c5760003660031901126200016c57620001e76040516200053f81620001b98162002b9c565b346200016c5760203660031901126200016c576001600160a01b0362000629620029f6565b168015620006495760005260036020526020604060002054604051908152f35b6040516322718ad960e21b815260006004820152602490fd5b346200016c5760203660031901126200016c5760206200068460043562003190565b6040516001600160a01b039091168152f35b346200016c5760603660031901126200016c576001600160401b036004356024358281116200016c57620006cf90369060040162002af4565b6044359260ff841684036200016c57620006e98362003190565b336001600160a01b039091160362000b9b5760095460405191612bd0808401926001600160a01b031691831184841017620003f55783926200073d9260409262003210863981528160208201520162002b9c565b03906000f0918215620009a657600052600b602052604060002060ff601682015416600014620009b2579162000847600060ff936200095f60209660176200094b6040516200078c8162002a41565b6040516200079a8162002a5e565b8781528152868b820152604051620007b28162002a5e565b8781526040820152866060820152866080820152604051620007d48162002a5e565b87815260a08201528660c0820152604051620007f08162002a5e565b87815260e08201528661010082015286610120820152604051620008148162002a5e565b878152610140820152620009386040519c8d9b8c9a8b9963529598d360e01b8b5260a060048c015260a48b0190620029b4565b911660248901526003198882030160448901526200092462000911620008e8620008cc6200089f620008816101a080885287018c62002c46565b60018c01548f0b6020880152868103604088015260028c0162002c46565b60038b015463ffffffff8116606088015260201c8e0b608087015285810360a087015260048b0162002c46565b60058a015460c086015284810360e086015260068a0162002c46565b600789015461010085015260088901546101208501528381036101408501526009890162002c46565b828103610160840152600a880162002c46565b90610180818303910152600b860162002c46565b8681036003190160648801529062002dd5565b848103600319016084860152910162002c46565b03926001600160a01b03165af18015620009a6576200097a57005b602090813d83116200099e575b62000993818362002a7a565b810103126200016c57005b503d62000987565b6040513d6000823e3d90fd5b9162000ac3600060ff936200095f60209660176200094b62000adc6101209b876040519d8e620009e28162002a24565b604051620009f08162002a5e565b8381528152828f82015260405162000a088162002a5e565b838152604082015282606082015282608082015260405162000a2a8162002a5e565b83815260a08201528260c082015260405162000a468162002a5e565b83815260e08201528261010082015201528c6101406040519162000a6a8362002a5e565b8a835201526040516101608e62000a818362002a5e565b8a835201526040516101808e62000a988362002a5e565b8a8352015260405163529598d360e01b815260a060048201529c8d9b8c9a8b9960a48b0190620029b4565b9216602489015287820360031901604489015262002ce4565b600319868203016064870152610160815262000b7162000b5562000b2962000b0c6101608501600c890162002c46565b600d8801548b0b8f8601528481036040860152600e880162002c46565b600f87015463ffffffff811660608601528e1c8a0b608085015283810360a08501526010870162002c46565b601186015460c084015282810360e08401526012860162002c46565b90601385015461010082015260148501546101208201526101408183039101526015840162002c46565b60405162461bcd60e51b8152602060048201526024808201527f43616c6c6572206973206e6f7420746865206f776e6572206f6620746865206160448201526319d95b9d60e21b6064820152608490fd5b346200016c576020806003193601126200016c5762000e6090600435600052600b8152620001e76040600020601762000e6e6040519462000c2d8662002a24565b60405162000c4181620001b9818862002c46565b8652600184015460000b8187015260405162000c6681620001b9816002890162002c46565b6040870152600384015463ffffffff908181166060890152821c60000b608088015260405162000c9f81620001b98160048a0162002c46565b60a0880152600585015460c088015260405162000cc581620001b98160068a0162002c46565b60e088015260078501546101009081890152600886015461012090818a01526040519162000d048362000cfc8160098c0162002c46565b038462002a7a565b61014092838b015260405162000d2381620001b981600a8d0162002c46565b6101608b015260405162000d4081620001b981600b8d0162002c46565b6101808b01526040519362000d558562002a41565b60405162000d6c81620001b981600c8e0162002c46565b8552600d89015460000b8686015260405162000d9181620001b981600e8e0162002c46565b6040860152600f8901549081166060860152851c60000b608085015260405162000dc481620001b98160108d0162002c46565b60a0850152601188015460c085015260405162000dea81620001b98160128d0162002c46565b60e08501526013880154908401526014870154908301526040519062000e218262000e198160158b0162002c46565b038362002a7a565b82015262000e4b60ff6016870154169562000e43604051809781930162002c46565b038562002a7a565b60405197889760808952608089019062002ce4565b918783039088015262002dd5565b91151560408501528382036060850152620029b4565b346200016c5760203660031901126200016c5762000ea1620029f6565b6008546001600160a01b03919062000ebd9083163314620031cc565b166bffffffffffffffffffffffff60a01b6009541617600955600080f35b346200016c576200025662000ef03662002b27565b906040519262000f008462002a5e565b6000845262003027565b346200016c576200025662000f1f3662002b27565b9162002e94565b346200016c5760c03660031901126200016c576001600160401b03600435116200016c576101a0600435360360031901126200016c5760405162000f6a8162002a24565b600435600401356001600160401b0381116200016c5762000f9390600436918135010162002af4565b8152602460043501358060000b81036200016c576020820152604460043501356001600160401b0381116200016c5762000fd590600436918135010162002af4565b604082015262000fea60646004350162002b15565b6060820152608460043501358060000b81036200016c57608082015260a460043501356001600160401b0381116200016c576200102f90600436918135010162002af4565b60a082015260c4600435013560c08201526001600160401b0360e46004350135116200016c576200106b366004803560e4810135010162002af4565b60e0820152610104600435013561010082015261012460043501356101208201526001600160401b036101446004350135116200016c57620010b93660048035610144810135010162002af4565b6101408201526001600160401b036101646004350135116200016c57620010ec3660048035610164810135010162002af4565b6101608201526001600160401b036101846004350135116200016c576200111f3660048035610184810135010162002af4565b6101808201526001600160401b03602435116200016c57610160602435360360031901126200016c57604051620011568162002a41565b6001600160401b0360243560040135116200016c5762001183366004602435810135602435010162002af4565b8152602480350135600081900b90036200016c5760248035013560208201526001600160401b0360446024350135116200016c57620011ce3660243560448101350160040162002af4565b6040820152620011e360646024350162002b15565b606082015260243560840135600081900b90036200016c576084602435013560808201526001600160401b0360a46024350135116200016c57620012333660243560a48101350160040162002af4565b60a082015260c4602435013560c08201526001600160401b0360e46024350135116200016c57620012703660243560e48101350160040162002af4565b60e0820152610104602435013561010082015261012460243501356101208201526001600160401b036101446024350135116200016c57620012bf366024356101448101350160040162002af4565b6101408201526044351515604435036200016c576001600160401b03606435116200016c57620012f53660643560040162002af4565b906001600160401b03608435116200016c57620013183660843560040162002af4565b906001600160401b0360a435116200016c576200133b3660a43560040162002af4565b936007549360001985146200272c5760018501600755331562002713576000858152600260205260409020546001600160a01b031680620026db575b3360005260036020526040600020600181540190558560005260026020526040600020336bffffffffffffffffffffffff60a01b8254161790558533827fddf252ad1be2c89b69c2b068fc378daa952ba7f163c4a11628f55a4df523b3ef600080a4620026c2578460005260066020526040600020908051906001600160401b038211620003f55781906200140d845462002b5f565b601f81116200266d575b50602090601f8311600114620025fc57600092620025f0575b50508160011b916000199060031b1c19161790555b7ff8e1a15aba9398e019f0b49df1a4fde98ee17ae345cb5f6b5e2c27f5033e8ce76020604051868152a183600052600b602052604060002094604435620025a9575b5080518051906001600160401b038211620003f5578190620014aa885462002b5f565b601f811162002554575b50602090601f8311600114620024e357600092620024d7575b50508160011b916000199060031b1c19161785555b60018501602082015160ff198254169060ff1617905560408101518051906001600160401b038211620003f557819062001520600289015462002b5f565b601f81116200247f575b50602090601f83116001146200240857600092620023fc575b50508160011b916000199060031b1c19161760028601555b63ffffffff60608201511663ffffffff19600387015416176003860155620015a4608082015160000b600387019081549060201b64ff00000000169064ff000000001916179055565b60a08101518051906001600160401b038211620003f5578190620015cc600489015462002b5f565b601f8111620023a4575b50602090601f83116001146200232d5760009262002321575b50508160011b916000199060031b1c19161760048601555b60c0810151600586015560e08101518051906001600160401b038211620003f557819062001639600689015462002b5f565b601f8111620022c9575b50602090601f8311600114620022525760009262002246575b50508160011b916000199060031b1c19161760068601555b610100810151600786015561012081015160088601556101408101518051906001600160401b038211620003f5578190620016b3600989015462002b5f565b601f8111620021ee575b50602090601f831160011462002177576000926200216b575b50508160011b916000199060031b1c19161760098601555b6101608101518051906001600160401b038211620003f55762001715600a88015462002b5f565b601f81116200211f575b50602090601f8311600114620020a657610180939291600091836200209a575b50508160011b916000199060031b1c191617600a8701555b01518051906001600160401b038211620003f55781906200177c600b88015462002b5f565b601f811162002042575b50602090601f831160011462001fcb5760009262001fbf575b50508160011b916000199060031b1c191617600b8501555b80518051906001600160401b038211620003f5578190620017dc600c88015462002b5f565b601f811162001f67575b50602090601f831160011462001ef05760009262001ee4575b50508160011b916000199060031b1c191617600c8501555b600d8401602082015160ff198254169060ff1617905560408101518051906001600160401b038211620003f557819062001855600e88015462002b5f565b601f811162001e8c575b50602090601f831160011462001e155760009262001e09575b50508160011b916000199060031b1c191617600e8501555b620018d2600f850163ffffffff60608401511663ffffffff19825416178155608083015160000b81549060201b64ff00000000169064ff000000001916179055565b60a08101518051906001600160401b038211620003f5578190620018fa601088015462002b5f565b601f811162001db1575b50602090601f831160011462001d3a5760009262001d2e575b50508160011b916000199060031b1c19161760108501555b60c0810151601185015560e08101518051906001600160401b038211620003f55762001965601287015462002b5f565b601f811162001ce2575b50602090601f831160011462001c69576101409392916000918362001c5d575b50508160011b916000199060031b1c19161760128601555b6101008101516013860155610120810151601486015501519283516001600160401b038111620003f557620019e0601583015462002b5f565b601f811162001c11575b506020601f821160011462001b99578190601794959660009262001b8d575b50508160011b916000199060031b1c19161760158201555b62001a3d604435601683019060ff801983541691151516179055565b01918151926001600160401b038411620003f55762001a5d815462002b5f565b93601f851162001b40575b602094508493601f821160011462001ad857938192939460009262001acc575b50508160011b916000199060031b1c19161790555b6040519033817f1a1591a1a262f8d4670dad61d6f4453d34bf767367deafb4ee4053cae802f3cb600080a38152f35b01519050858062001a88565b601f1982169483600052866000209160005b87811062001b2857508360019596971062001b0e575b505050811b01905562001a9d565b015160001960f88460031b161c1916905585808062001b00565b91928860018192868501518155019401920162001aea565b816000526020600020601f820160051c8101956020831062001b82575b601f0160051c01945b85811062001b75575062001a68565b6000815560010162001b66565b909550859062001b5d565b01519050868062001a09565b6015830160005260206000209560005b601f198416811062001bf857509582916017959697600194601f1981161062001bde575b505050811b01601582015562001a21565b015160001960f88460031b161c1916905586808062001bcd565b8282015188556001909701966020928301920162001ba9565b601583016000526020600020601f830160051c81016020841062001c55575b601f830160051c8201811062001c48575050620019ea565b6000815560010162001c30565b508062001c30565b0151905087806200198f565b906012870160005260206000209160005b601f198516811062001cc957509183916001936101409695601f1981161062001caf575b505050811b016012860155620019a7565b015160001960f88460031b161c1916905587808062001c9e565b9192602060018192868501518155019401920162001c7a565b601287016000526020600020601f840160051c81016020851062001d26575b601f830160051c8201811062001d195750506200196f565b6000815560010162001d01565b508062001d01565b0151905086806200191d565b9250601087016000526020600020906000935b601f198416851062001d95576001945083601f1981161062001d7b575b505050811b01601085015562001935565b015160001960f88460031b161c1916905586808062001d6a565b8181015183556020948501946001909301929091019062001d4d565b909150601087016000526020600020601f840160051c81016020851062001e01575b90849392915b601f830160051c8201811062001df157505062001904565b6000815585945060010162001dd9565b508062001dd3565b01519050868062001878565b9250600e87016000526020600020906000935b601f198416851062001e70576001945083601f1981161062001e56575b505050811b01600e85015562001890565b015160001960f88460031b161c1916905586808062001e45565b8181015183556020948501946001909301929091019062001e28565b909150600e87016000526020600020601f840160051c81016020851062001edc575b90849392915b601f830160051c8201811062001ecc5750506200185f565b6000815585945060010162001eb4565b508062001eae565b015190508680620017ff565b9250600c87016000526020600020906000935b601f198416851062001f4b576001945083601f1981161062001f31575b505050811b01600c85015562001817565b015160001960f88460031b161c1916905586808062001f20565b8181015183556020948501946001909301929091019062001f03565b909150600c87016000526020600020601f840160051c81016020851062001fb7575b90849392915b601f830160051c8201811062001fa7575050620017e6565b6000815585945060010162001f8f565b508062001f89565b0151905086806200179f565b9250600b87016000526020600020906000935b601f198416851062002026576001945083601f198116106200200c575b505050811b01600b850155620017b7565b015160001960f88460031b161c1916905586808062001ffb565b8181015183556020948501946001909301929091019062001fde565b909150600b87016000526020600020601f840160051c81016020851062002092575b90849392915b601f830160051c820181106200208257505062001786565b600081558594506001016200206a565b508062002064565b0151905088806200173f565b90600a880160005260206000209160005b601f19851681106200210657509183916001936101809695601f19811610620020ec575b505050811b01600a87015562001757565b015160001960f88460031b161c19169055888080620020db565b91926020600181928685015181550194019201620020b7565b600a88016000526020600020601f840160051c81016020851062002163575b601f830160051c82018110620021565750506200171f565b600081556001016200213e565b50806200213e565b015190508780620016d6565b9250600988016000526020600020906000935b601f1984168510620021d2576001945083601f19811610620021b8575b505050811b016009860155620016ee565b015160001960f88460031b161c19169055878080620021a7565b818101518355602094850194600190930192909101906200218a565b909150600988016000526020600020601f840160051c8101602085106200223e575b90849392915b601f830160051c820181106200222e575050620016bd565b6000815585945060010162002216565b508062002210565b0151905087806200165c565b9250600688016000526020600020906000935b601f1984168510620022ad576001945083601f1981161062002293575b505050811b01600686015562001674565b015160001960f88460031b161c1916905587808062002282565b8181015183556020948501946001909301929091019062002265565b909150600688016000526020600020601f840160051c81016020851062002319575b90849392915b601f830160051c820181106200230957505062001643565b60008155859450600101620022f1565b5080620022eb565b015190508780620015ef565b9250600488016000526020600020906000935b601f198416851062002388576001945083601f198116106200236e575b505050811b01600486015562001607565b015160001960f88460031b161c191690558780806200235d565b8181015183556020948501946001909301929091019062002340565b909150600488016000526020600020601f840160051c810160208510620023f4575b90849392915b601f830160051c82018110620023e4575050620015d6565b60008155859450600101620023cc565b5080620023c6565b01519050878062001543565b9250600288016000526020600020906000935b601f198416851062002463576001945083601f1981161062002449575b505050811b0160028601556200155b565b015160001960f88460031b161c1916905587808062002438565b818101518355602094850194600190930192909101906200241b565b909150600288016000526020600020601f840160051c810160208510620024cf575b90849392915b601f830160051c82018110620024bf5750506200152a565b60008155859450600101620024a7565b5080620024a1565b015190508780620014cd565b9250876000526020600020906000935b601f198416851062002538576001945083601f198116106200251e575b505050811b018555620014e2565b015160001960f88460031b161c1916905587808062002510565b81810151835560209485019460019093019290910190620024f3565b909150876000526020600020601f840160051c810160208510620025a1575b90849392915b601f830160051c8201811062002591575050620014b4565b6000815585945060010162002579565b508062002573565b6101408201526040518060408101106001600160401b03604083011117620003f5576040810160405260048152636175746f60e01b60208201526101608201528562001487565b01519050888062001430565b9250836000526020600020906000935b601f198416851062002651576001945083601f1981161062002637575b505050811b01905562001445565b015160001960f88460031b161c1916905588808062002629565b818101518355602094850194600190930192909101906200260c565b909150836000526020600020601f840160051c810160208510620026ba575b90849392915b601f830160051c82018110620026aa57505062001417565b6000815585945060010162002692565b50806200268c565b6040516339e3563760e11b815260006004820152602490fd5b600086815260046020526040902080546001600160a01b03191690558060005260036020526040600020600019815401905562001377565b604051633250574960e11b815260006004820152602490fd5b634e487b7160e01b600052601160045260246000fd5b346200016c5760403660031901126200016c576200275f620029f6565b6024356200276d8162003190565b3315158062002820575b80620027f2575b620027da576001600160a01b039283169282918491167f8c5be1e5ebec7d5bd14f71427d1e84f3dd0314c0f7b2291e5b200ac8c7c3b925600080a4600090815260046020526040902080546001600160a01b0319169091179055005b60405163a9fbf51f60e01b8152336004820152602490fd5b5060018060a01b038116600052600560205260406000203360005260205260ff60406000205416156200277e565b506001600160a01b03811633141562002777565b346200016c5760203660031901126200016c57600435620028558162003190565b506000526004602052602060018060a01b0360406000205416604051908152f35b346200016c5760003660031901126200016c57604051600080546200289b8162002b5f565b80845290600190818116908115620005b15750600114620028c957620001e7846200053f8186038262002a7a565b600080805292507f290decd9548b62a8d60345a988386fc84ba6bc95484008f6362f93160ef3e5635b8284106200290d5750505081016020016200053f826200052c565b80546020858701810191909152909301928101620028f2565b346200016c5760203660031901126200016c576004359063ffffffff60e01b82168092036200016c57602091632483248360e11b81149081156200296c575b5015158152f35b6380ac58cd60e01b811491508115620029a2575b811562002990575b508362002965565b6301ffc9a760e01b1490508362002988565b635b5e139f60e01b8114915062002980565b919082519283825260005b848110620029e1575050826000602080949584010152601f8019910116010190565b602081830181015184830182015201620029bf565b600435906001600160a01b03821682036200016c57565b602435906001600160a01b03821682036200016c57565b6101a081019081106001600160401b03821117620003f557604052565b61016081019081106001600160401b03821117620003f557604052565b602081019081106001600160401b03821117620003f557604052565b90601f801991011681019081106001600160401b03821117620003f557604052565b6001600160401b038111620003f557601f01601f191660200190565b92919262002ac68262002a9c565b9162002ad6604051938462002a7a565b8294818452818301116200016c578281602093846000960137010152565b9080601f830112156200016c5781602062002b129335910162002ab8565b90565b359063ffffffff821682036200016c57565b60609060031901126200016c576001600160a01b039060043582811681036200016c579160243590811681036200016c579060443590565b90600182811c9216801562002b91575b602083101462002b7b57565b634e487b7160e01b600052602260045260246000fd5b91607f169162002b6f565b600a546000929162002bae8262002b5f565b8082529160019081811690811562002c29575060011462002bce57505050565b91929350600a6000527fc65a7bb8d6351c1cf70c95a316cc6a92839c986682d98bc35f958f4883f9d2a8916000925b84841062002c1057505060209250010190565b8054602085850181019190915290930192810162002bfd565b915050602093945060ff929192191683830152151560051b010190565b906000929180549162002c598362002b5f565b91828252600193848116908160001462002cc0575060011462002c7d575b50505050565b90919394506000526020928360002092846000945b83861062002cab57505050500101903880808062002c77565b80548587018301529401938590820162002c92565b9294505050602093945060ff191683830152151560051b0101903880808062002c77565b9062002b129162002dc062002dab62002d8062002d6362002d3362002d1386516101a0808a52890190620029b4565b602087015160000b6020890152604087015188820360408a0152620029b4565b63ffffffff6060870151166060880152608086015160000b608088015260a086015187820360a0890152620029b4565b60c085015160c087015260e085015186820360e0880152620029b4565b61010080850151908601526101208085015190860152610140808501519086830390870152620029b4565b610160808401519085830390860152620029b4565b916101808092015191818403910152620029b4565b9062002b129162002e6962002e4c62002e1c62002dfc8451610160808852870190620029b4565b602085015160000b602087015260408501518682036040880152620029b4565b63ffffffff6060850151166060860152608084015160000b608086015260a084015185820360a0870152620029b4565b60c083015160c085015260e083015184820360e0860152620029b4565b91610100808301519082015261012080830151908201526101408092015191818403910152620029b4565b6001600160a01b039182169290918315620027135760009282845282602095600287526040968488882054169687913315158062002f89575b509060027fddf252ad1be2c89b69c2b068fc378daa952ba7f163c4a11628f55a4df523b3ef928462002f55575b858352600381528b8320805460010190558683525289812080546001600160a01b0319168517905580a4169283830362002f345750505050565b6064945051926364283d7b60e01b8452600484015260248301526044820152fd5b600087815260046020526040902080546001600160a01b0319169055848352600381528b8320805460001901905562002efa565b9193945091508062002fe2575b1562002fa85785929187913862002ecd565b87868862002fc6576024915190637e27328960e01b82526004820152fd5b604491519063177e802f60e01b82523360048301526024820152fd5b5033871480156200300a575b8062002f96575085825260048152338589842054161462002f96565b5086825260058152878220338352815260ff888320541662002fee565b6200303483838362002e94565b813b620030415750505050565b604051630a85bd0160e11b8082523360048301526001600160a01b0392831660248301526044820194909452608060648201526020959290911693909290839062003091906084830190620029b4565b039285816000958187895af184918162003145575b506200310e575050503d60001462003105573d620030c48162002a9c565b90620030d4604051928362002a7a565b81528091843d92013e5b805192836200310057604051633250574960e11b815260048101849052602490fd5b019050fd5b506060620030de565b919450915063ffffffff60e01b16036200312d57503880808062002c77565b60249060405190633250574960e11b82526004820152fd5b9091508681813d831162003188575b62003160818362002a7a565b810103126200318457516001600160e01b03198116810362003184579038620030a6565b8480fd5b503d62003154565b6000818152600260205260409020546001600160a01b0316908115620031b4575090565b60249060405190637e27328960e01b82526004820152fd5b15620031d457565b60405162461bcd60e51b815260206004820152601360248201527221b0b63632b91034b9903737ba1037bbb732b960691b6044820152606490fdfe6080604052346200024a5762002bd0803803806200001d816200024f565b9283398101906040818303126200024a5780516001600160a01b038116908190036200024a576020828101516001600160401b03939192918482116200024a570193601f918183870112156200024a5785518581116200021f57601f19966200008c828601891687016200024f565b938285528683830101116200024a57859060005b838110620002355750506000918401015260018060a01b031933816003541617600355600454161760045580519384116200021f57600054926001938481811c9116801562000214575b82821014620001fe57838111620001b3575b5080928511600114620001495750839450908392916000946200013d575b50501b916000199060031b1c1916176000555b60405161295a9081620002768239f35b0151925038806200011a565b9294849081166000805284600020946000905b888383106200019857505050106200017e575b505050811b016000556200012d565b015160001960f88460031b161c191690553880806200016f565b8587015188559096019594850194879350908101906200015c565b60008052816000208480880160051c820192848910620001f4575b0160051c019085905b828110620001e7575050620000fc565b60008155018590620001d7565b92508192620001ce565b634e487b7160e01b600052602260045260246000fd5b90607f1690620000ea565b634e487b7160e01b600052604160045260246000fd5b818101830151868201840152879201620000a0565b600080fd5b6040519190601f01601f191682016001600160401b038111838210176200021f5760405256fe6080604052600436101561001257600080fd5b60003560e01c80632843d135146111a25780632eab9c811461116b5780634c69c00f146110c65780634cecd88e14610f20578063529598d3146105d35780637397454d1461044e5780637c65d71114610416578063a89ae4ba146103ed578063c63b029514610364578063cc060137146101e4578063eb17429a1461015a5763ed6e39e5146100a057600080fd5b34610155576020806003193601126101555760043580600052600182818094526100d08260406000200154612892565b926000945b6100ec575b604051806100e88682611534565b0390f35b8060005282825282604060002001805486101561014f578561012661012d61011987989961014895611596565b5060405192838092611456565b03826112c5565b6101378289612500565b526101428188612500565b50611848565b94936100d5565b506100da565b600080fd5b346101555760208060031936011261015557600435806000526001828180945261018a8260406000200154612892565b926000945b6101a157604051806100e88682611534565b8060005282825282604060002001805486101561014f57858461012d6101cc8298996101dd95611596565b506101266040518094819301611456565b949361018f565b3461015557600319606036820112610155576001600160401b03906024358281116101555761012080928236030112610155576040519182018281108482111761034e5760405280600401358381116101555761024790600436918401016112fd565b825260248101358381116101555761026590600436918401016112fd565b602083015261027660448201611353565b604083015260648101358381116101555761029790600436918401016112fd565b60608301526084810135838111610155576102b890600436918401016112fd565b608083015260a48101358381116101555761030d916102e061010492600436918401016112fd565b60a08501526102f160c48201611367565b60c085015261030260e48201611367565b60e085015201611367565b6101008201526044359182116101555761032e61034c9236906004016112fd565b9061034460018060a01b0360045416331461186d565b600435611ac0565b005b634e487b7160e01b600052604160045260246000fd5b34610155576020366003190112610155576004356000526001602052604060002060018060a01b038154166100e8600460ff6002850154946103bc6003820154916103b56040518096819301611456565b03846112c5565b60405195869586526020860152818116604086015260081c161515606084015260a0608084015260a083019061150f565b34610155576000366003190112610155576004546040516001600160a01b039091168152602090f35b34610155576000366003190112610155576100e860405161043a81610126816113b2565b60405191829160208352602083019061150f565b34610155576060366003190112610155576001600160401b03600435602435828111610155576104829036906004016112fd565b916044359081116101555761049b9036906004016112fd565b60045490926001600160a01b03916104b6908316331461186d565b826000526020936001855260406000209160ff600384015460081c1661059c5792600261055493610526600097948997906104ff6040516104f6816112aa565b8b8152826128dc565b15610594575b5061050e6118b0565b90610517611828565b825288820152600183016115c8565b016105318154611848565b90556004541690604051948580948193633c38a5f560e01b835260048301611fdb565b03925af180156105885761056457005b813d8311610581575b61057781836112c5565b8101031261015557005b503d61056d565b6040513d6000823e3d90fd5b90508a610505565b60405162461bcd60e51b815260048101879052600f60248201526e149d5b881a5cc8199a5b9a5cda1959608a1b6044820152606490fd5b346101555760a0366003190112610155576004356001600160401b038111610155576106039036906004016112fd565b6024359060ff82168203610155576001600160401b0360443511610155576101a06044353603600319011261015557604051906101a082018281106001600160401b0382111761034e57604052604435600401356001600160401b03811161015557610677906004369160443501016112fd565b8252602460443501358060000b81036101555760208301526044803501356001600160401b038111610155576106b5906004369160443501016112fd565b60408301526106c8606460443501611367565b606083015260443560840135600081900b9003610155576084604435013560808301526001600160401b0360a4604435013511610155576107143660443560a4810135016004016112fd565b60a083015260c4604435013560c08301526001600160401b0360e46044350135116101555761074e3660443560e4810135016004016112fd565b60e0830152610104604435013561010083015261012460443501356101208301526001600160401b036101446044350135116101555761079a36604435610144810135016004016112fd565b6101408301526001600160401b03610164604435013511610155576107cb36604435610164810135016004016112fd565b6101608301526001600160401b03610184604435013511610155576107fc36604435610184810135016004016112fd565b6101808301526001600160401b03606435116101555761016060643536036003190112610155576040519161083083611273565b6001600160401b0360643560040135116101555761085a36600460643581013560643501016112fd565b835260643560240135600081900b9003610155576024606435013560208401526001600160401b036044606435013511610155576108a3366064356044810135016004016112fd565b60408401526108b56064803501611367565b606084015260643560840135600081900b9003610155576084606435013560808401526001600160401b0360a4606435013511610155576109013660643560a4810135016004016112fd565b60a084015260c4606435013560c08401526001600160401b0360e46064350135116101555761093b3660643560e4810135016004016112fd565b60e0840152610104606435013561010084015261012460643501356101208401526001600160401b036101446064350135116101555761098736606435610144810135016004016112fd565b6101408401526001600160401b0360843511610155576109ac366084356004016112fd565b906002546000526001602052604060002094336bffffffffffffffffffffffff60a01b875416178655600386019060ff825491600060028a0155169061ffff191617905581516001600160401b03811161034e57610a0d6004870154611378565b601f8111610ed9575b50806020601f8211600114610e6c57600091610e61575b508160011b916000199060031b1c19161760048601555b610ab9604051610a538161128f565b604051610a5f8161128f565b600681526573797374656d60d01b60208201528152604051610a8481610126816113b2565b6020820152610a976001880191826115c8565b60405190610aa48261128f565b610aac611828565b82528560208301526115c8565b60025493610ac685611848565b600255825115610ba7575050610b2791602091610b15600060018060a01b0360045416926040519687958694859363a252a95160e01b85528b600486015260806024860152608485019061150f565b8381036003190160448501529061150f565b6003606483015203925af1801561058857610b7c575b506020915b54604051919081906001600160a01b03167f9697c88a6be3b3ed5062f2dcbd719a10914832320686f14e24f7756210a6685e600080a38152f35b602090813d8311610ba0575b610b9281836112c5565b810103126101555782610b3d565b503d610b88565b60009350602092508151604051610bda858281610bcd81830196878151938492016114ec565b81010380845201826112c5565b519020604051858152610bec816112aa565b84815191012014158414610d6a5750610d279060018060a01b036004541690604051948580948193633c38a5f560e01b835289600484015260406024840152610180610d12610cfa610cca610ca8610c76610c5587516101a060448c01526101e48b019061150f565b878f01518b0b60648b015260408801518a82036043190160848c015261150f565b606087015163ffffffff1660a48a015260808701518a0b60c48a015260a08701518982036043190160e48b015261150f565b60c086015161010489015260e0860151888203604319016101248a015261150f565b6101008501516101448801526101208501516101648801526101408501518782036043190161018489015261150f565b610160840151868203604319016101a488015261150f565b910151838203604319016101c485015261150f565b03925af1801561058857610d3f575b50602091610b42565b602090813d8311610d63575b610d5581836112c5565b810103126101555782610d36565b503d610d4b565b610d27915060018060a01b036004541690604051948580948193631e0fca9360e11b835289600484015260406024840152610140610e34610e12610de0610dbf855161016060448a01526101a489019061150f565b858d0151890b606489015260408601518882036043190160848a015261150f565b606085015163ffffffff1660a48801526080850151880b60c488015260a08501518782036043190160e489015261150f565b60c084015161010487015260e08401518682036043190161012488015261150f565b6101008301516101448601526101208301516101648601529101518382036043190161018485015261150f565b905083015187610a2d565b91506004870160005260206000206000925b601f1983168410610ec1576001935082601f19811610610ea8575b5050811b016004860155610a44565b85015160001960f88460031b161c191690558780610e99565b85810151825560209384019360019092019101610e7e565b600487016000526020600020601f830160051c810160208410610f19575b601f830160051c82018110610f0d575050610a16565b60008155600101610ef7565b5080610ef7565b3461015557600319606036820112610155576024356001600160401b0391828211610155576101609082360301126101555760405190610f5f82611273565b806004013583811161015557610f7b90600436918401016112fd565b8252602481013583811161015557610f9990600436918401016112fd565b6020830152604481013583811161015557610fba90600436918401016112fd565b6040830152606481013583811161015557610fdb90600436918401016112fd565b6060830152610fec60848201611353565b608083015260a48101358381116101555761100d90600436918401016112fd565b60a083015260c48101358381116101555761102e90600436918401016112fd565b60c083015260e4810135838111610155576110879161105661014492600436918401016112fd565b60e08501526110686101048201611367565b61010085015261107b6101248201611367565b61012085015201611367565b610140820152604435918211610155576110a861034c9236906004016112fd565b906110be60018060a01b0360045416331461186d565b6004356118ee565b34610155576020366003190112610155576004356001600160a01b03818116918290036101555760035416330361113057600480546001600160a01b031916821790557f107a9fafffb7ac890f780879e423760c9ffea8dcee8045681f40f542aede2cb8600080a2005b60405162461bcd60e51b815260206004820152601360248201527221b0b63632b91034b9903737ba1037bbb732b960691b6044820152606490fd5b34610155576020366003190112610155576004356000526001602052602060ff60036040600020015460081c166040519015158152f35b34610155576060366003190112610155576001600160401b03602480358281116101555736602382011215610155578060040135906111e0826112e6565b926111ee60405194856112c5565b828452602092818486019160051b8401019236841161015557828101915b84831061124d57604435878982116101555761122f61034c9236906004016112fd565b9061124560018060a01b0360045416331461186d565b600435612514565b823588811161015557869161126883928736918701016112fd565b81520192019161120c565b61016081019081106001600160401b0382111761034e57604052565b604081019081106001600160401b0382111761034e57604052565b602081019081106001600160401b0382111761034e57604052565b90601f801991011681019081106001600160401b0382111761034e57604052565b6001600160401b03811161034e5760051b60200190565b81601f82011215610155578035906001600160401b03821161034e5760405192611331601f8401601f1916602001856112c5565b8284526020838301011161015557816000926020809301838601378301015290565b35906001600160401b038216820361015557565b359063ffffffff8216820361015557565b90600182811c921680156113a8575b602083101461139257565b634e487b7160e01b600052602260045260246000fd5b91607f1691611387565b90600091600054906113c382611378565b8082529160019081811690811561143957506001146113e157505050565b91929350600080527f290decd9548b62a8d60345a988386fc84ba6bc95484008f6362f93160ef3e563916000925b84841061142157505060209250010190565b8054602085850181019190915290930192810161140f565b915050602093945060ff929192191683830152151560051b010190565b906000929180549161146783611378565b9182825260019384811690816000146114c95750600114611489575b50505050565b90919394506000526020928360002092846000945b8386106114b5575050505001019038808080611483565b80548587018301529401938590820161149e565b9294505050602093945060ff191683830152151560051b01019038808080611483565b60005b8381106114ff5750506000910152565b81810151838201526020016114ef565b90602091611528815180928185528580860191016114ec565b601f01601f1916010190565b602080820190808352835180925260408301928160408460051b8301019501936000915b8483106115685750505050505090565b9091929394958480611586600193603f198682030187528a5161150f565b9801930193019194939290611558565b80548210156115b25760005260206000209060011b0190600090565b634e487b7160e01b600052603260045260246000fd5b80546801000000000000000081101561034e576115ec906001928382018155611596565b6118125782518051916001600160401b039283811161034e5784906116118354611378565b93601f948581116117c1575b506020908583116001146117585760209492916000918361174d575b5050600019600383901b1c191690831b1781555b01940151805192831161034e576116648554611378565b828111611705575b5060209183116001146116a55792829391839260009461169a575b50501b916000199060031b1c1916179055565b015192503880611687565b90601f198316918560005283826000209360005b878282106116ec575050106116d3575b505050811b019055565b015160001960f88460031b161c191690553880806116c9565b84860151875590950194602094850194879350016116b9565b8560005260206000208380860160051c82019260208710611744575b0160051c019085905b82811061173857505061166c565b6000815501859061172a565b92508192611721565b015190503880611639565b90601f1983169185600052816000209260005b8181106117a957509185939185602098969410611790575b505050811b01815561164d565b015160001960f88460031b161c19169055388080611783565b8284015185558a96909401936020938401930161176b565b909192506000848152602081208680860160051c82019360208710611809575b908a9695949392910160051c01915b8281106117fe57505061161d565b8181558995016117f0565b935081936117e1565b634e487b7160e01b600052600060045260246000fd5b604051906118358261128f565b60048252633ab9b2b960e11b6020830152565b60001981146118575760010190565b634e487b7160e01b600052601160045260246000fd5b1561187457565b60405162461bcd60e51b815260206004820152601460248201527343616c6c6572206973206e6f74206f7261636c6560601b6044820152606490fd5b604051906118bd8261128f565b60606020838281520152565b604051906118d68261128f565b6009825268185cdcda5cdd185b9d60ba1b6020830152565b9190916000908082526020906001825260408084209461191b8251611912816112aa565b868152826128dc565b15611a75575060028501805495600381019687549060ff82161115611a605750848801611957815185519061194f826112aa565b8982526128dc565b15611a28575b50505080860161197c8151835190611974826112aa565b8782526128dc565b15611997575050835461ff0019166101001790935550505050565b8395508496610b1592949395606060018060a01b03600454169351920151966119e2875198899687958694634b04236b60e01b8652600486015260606024860152606485019061150f565b03925af1908115611a1f57506119f757505050565b813d8311611a18575b611a0a81836112c5565b81010312611a155750565b80fd5b503d611a00565b513d85823e3d90fd5b6001611a4c92611a366118b0565b925188840152611a446118c9565b8352016115c8565b611a568154611848565b905538808061195d565b61ff0019166101001790965550505050505050565b91505060039450611aa09250611a896118b0565b91611a926118c9565b8352820152600183016115c8565b60028101611aae8154611848565b905501805461ff001916610100179055565b600092818452600191602093838552604092838720611aec8551611ae3816112aa565b898152836128dc565b15611faf576002810190815493600382019485549060ff82161115611f985750880187611b288251895190611b20826112aa565b8d82526128dc565b15611f6a575b505050549082549160ff8316119081611f53575b5015611f41575050839060018060a01b0360045416868451958693631e0fca9360e11b8552600485015285602485015261016060448501528190601154611b8881611378565b90816101a48801528281169081600014611f225750600114611ec4575b50601254830b6064860152604319858303810160848701526013548493611bcb82611378565b91828252898582169182600014611ea5575050600114611e4a575b505060145463ffffffff811660a4880152871c840b60c4870152858303810160e48701526015548493611c1882611378565b91828252898582169182600014611e2b575050600114611dd0575b505060165461010487015285830381016101248701526017548493611c5782611378565b91828252898582169182600014611db1575050600114611d56575b5050601854610144870152601954610164870152858303016101848601528291601a5491611c9f83611378565b9283835287898383169283600014611d3457505050600114611cd8575b5050509083809203925af1908115611a1f57506119f757505050565b925090601a84527f057c384a7d1c54f3a1b2e5e67b2617b8224fdfd1ea7234eea573a6ff665ff63e9284935b828510611d1957505050018401838038611cbc565b80548486018a01528b988b98508d9650909401938101611d04565b60ff19168582015294151560051b909301909301935090915081905038611cbc565b601786529193508491907fc624b66cc0138b8fabc209247f72d758e1cf3343756d543badbf24212bed8c155b818410611d96575050018601913880611c72565b80548484018b01528c998c99508e9750909301928401611d82565b60ff19168382015292151560051b909101909101935038905080611c72565b601586529193508491907f55f448fdea98c4d29eb340757ef0a66cd03dbb9538908a6a81d96026b71ec4755b818410611e10575050018601913880611c33565b80548484018b01528c998c99508e9750909301928401611dfc565b60ff19168382015292151560051b909101909101935038905080611c33565b601386529193508491907f66de8ffda797e3de9c05e8fc57b3bf0ec28a930d40b0d285d93c06501cf6a0905b818410611e8a575050018601913880611be6565b80548484018b01528c998c99508e9750909301928401611e76565b60ff19168382015292151560051b909101909101935038905080611be6565b6011845290915082907f31ecc21a745e3968a04e9570e4425bc18fa8019c68028196b546d1669c200c685b818310611f0557505084016101c4019038611ba5565b80546101c4848c0101528a978a97508c9550909201918301611eef565b929350506101c49160ff191682870152151560051b8501019038611ba5565b61ff0019166101001790555050505050565b611f64915085519061194f826112aa565b38611b42565b611f8492611f766118b0565b92518b840152611a446118c9565b611f8e8154611848565b8155388087611b2e565b61ff00191661010017909455505050505050505050565b959350905060039550611aa0939150611fc66118b0565b92611fcf6118c9565b845283015283016115c8565b90815260206040818301526101a091826040820152600060059182549461200186611378565b806101e084015260019687811690816000146124e25750600114612485575b5060065460000b6060830152603f1990818385030160808401526000936007549061204a82611378565b91828252888a8216918260001461246757505060011461240d575b505060085463ffffffff811660a0850152861c60000b60c0840152818385030160e08401526000936009549061209a82611378565b91828252888a821691826000146123ef575050600114612395575b5050600a546101008401528284038201610120840152600b546000946120da82611378565b91828252888a8216918260001461237757505060011461231d575b5050600c54610140840152600d546101608401528284038201610180840152600e5460009461212382611378565b91828252888a821691826000146122ff5750506001146122a5575b5050828403820190830152600f5460009361215882611378565b91828252878982169182600014612285575050600114612227575b50506101c0908284030191015260009360105461218f81611378565b808452938183169182156122085750506001146121ae575b5050505090565b9293509060106000527f1b6847dc741a1b0cd08d278845f9d819d87b734759afb55fe2de5cb82a9ae67292846000945b8386106121f457505050500101388080806121a7565b8054858701830152940193859082016121de565b925093929495505060ff1916848401521515901b0101388080806121a7565b8691929450600f6000527f8d1108e10bcb7c27dddfc02ed9d693a074039d026cf4ea4240b40f7d581ac80290886000925b85841061226f57505001019290506101c038612173565b80548385018601528994909301928a9101612258565b60ff191683820152921515871b90910190910193506101c0905038612173565b87929550600e6000527fbb7b4a454dc3493923482f07822329ed19e8244eff582cc204f8554c3620c3fd91896000935b8285106122e957505050010192388061213e565b80548585018701528a95909401938b91016122d5565b60ff191683820152921515881b90910190910194503890508061213e565b87929550600b6000527f0175b7a638427703f0dbe7bb9bbf987a2551717b34e79f33b5b1008d1fa01db991896000935b8285106123615750505001019238806120f5565b80548585018701528a95909401938b910161234d565b60ff191683820152921515881b9091019091019450389050806120f5565b8792955060096000527f6e1540171b6c0c960b71a7020d9f60077f6af931a8bbf590da0223dacf75c7af91896000935b8285106123d95750505001019238806120b5565b80548585018701528a95909401938b91016123c5565b60ff191683820152921515881b9091019091019450389050806120b5565b8792955060076000527fa66cc928b5edb82af9bd49922954155ab7b0942694bea4ce44661d9a8736c68891896000935b828510612451575050500101923880612065565b80548585018701528a95909401938b910161243d565b60ff191683820152921515881b909101909101945038905080612065565b909250836000527f036b6384b5eca791c62761152d0c79bb0604c104a5fb6f4eb0703f3154bb3db085876000925b8484106124cc5750505061020091508201019138612020565b80546102008588010152019101908787916124b3565b929450506102009160ff1916828401521515841b8201019138612020565b80518210156115b25760209160051b010190565b916000928084526001602093818552604093848720838101805491600019938484019380851161287e5715158061284b575b15612807576125628951612559816112aa565b8c8152826128dc565b156127da575050849161257491611596565b50019285519261258f846125888188611456565b03856112c5565b838151612787575b508890825b61270f575b50508251926001600160401b0384116126fb5791889695939185936125c78a9754611378565b601f811161269e575b508690601f8511600114612631576119e2969594938a939092859283612626575b50501b9260031b1c19161790555b60018060a01b0360045416908451958680948193633c38a5f560e01b835260048301611fdb565b0151935038806125f1565b9897969594939192601f19831691858a52878a20928a5b81811061268557509a846119e2999a9b9c1061266d575b50505050811b0190556125ff565b01519060f88460031b161c191690553880808061265f565b828d015185558e9b508d99948701949283019201612648565b91939597988597509490929452888a20601f860160051c8101918a87106126f1575b918a97959391601f8d9b9a9896940160051c01905b8181106126e257506125d0565b998a558b998b985083016126d5565b90915081906126c0565b634e487b7160e01b89526041600452602489fd5b90938151851015612781579061277b8392612775602161272f8986612500565b51928d8d51948261274987945180928580880191016114ec565b830161275d825180938580850191016114ec565b600560f91b91019182015203868101845201826112c5565b95611848565b9161259c565b936125a1565b829194506127d360348951836127a78d83965192818492860191016114ec565b81017305052932b632bb30b73a1031b7b73a32bc3a1d0560611b8d8201520360148101845201826112c5565b9390612597565b94509795509350505060039550611aa093506127f46118b0565b926127fd6118c9565b84528301526115c8565b885162461bcd60e51b8152600481018b9052601c60248201527f4e6f206d65737361676520746f2061646420636f6e7465787420746f000000006044820152606490fd5b5061287961012661286b61285f8787611596565b508c5192838092611456565b612873611828565b906128dc565b612546565b634e487b7160e01b8c52601160045260248cfd5b9061289c826112e6565b6128a960405191826112c5565b82815280926128ba601f19916112e6565b019060005b8281106128cb57505050565b8060606020809385010152016128bf565b90604051916020926128fd848281610bcd81830196878151938492016114ec565b5190209161291d604051918281610bcd81830196878151938492016114ec565b519020149056fea2646970667358221220d2c90b5c163e900f87bf9dad7c729189f60f8c46330e9fc9f0ec85acdbb3bac664736f6c63430008140033a26469706673582212204614aea413095daf33ccbbfa984ea40285ac85f1d81709abbfca0b6b964723bb64736f6c63430008140033",
  "linkReferences": {},
  "deployedLinkReferences": {}
}